{
  "_format": "hh-sol-artifact-1",
  "contractName": "AddProperty",
  "sourceName": "contracts/AddProperty.sol",
  "abi": [
    {
      "inputs": [
        {
          "internalType": "address",
          "name": "_property",
          "type": "address"
        }
      ],
      "stateMutability": "nonpayable",
      "type": "constructor"
    },
    {
      "inputs": [],
      "name": "AddProperty__InvalidAddress",
      "type": "error"
    },
    {
      "inputs": [],
      "name": "AddProperty__NotUser",
      "type": "error"
    },
    {
      "inputs": [],
      "name": "AddProperty__PropertyAlreadyExists",
      "type": "error"
    },
    {
      "inputs": [],
      "name": "AddProperty__UserAlreadyExists",
      "type": "error"
    },
    {
      "inputs": [
        {
          "internalType": "uint256",
          "name": "value",
          "type": "uint256"
        },
        {
          "internalType": "uint256",
          "name": "length",
          "type": "uint256"
        }
      ],
      "name": "StringsInsufficientHexLength",
      "type": "error"
    },
    {
      "anonymous": false,
      "inputs": [
        {
          "indexed": true,
          "internalType": "uint256",
          "name": "tokenId",
          "type": "uint256"
        },
        {
          "indexed": true,
          "internalType": "address",
          "name": "owner",
          "type": "address"
        },
        {
          "indexed": true,
          "internalType": "address",
          "name": "propertyAddress",
          "type": "address"
        },
        {
          "indexed": false,
          "internalType": "uint256",
          "name": "amount",
          "type": "uint256"
        },
        {
          "indexed": false,
          "internalType": "string",
          "name": "propertyURI",
          "type": "string"
        }
      ],
      "name": "PropertyAdded",
      "type": "event"
    },
    {
      "anonymous": false,
      "inputs": [
        {
          "indexed": true,
          "internalType": "address",
          "name": "user",
          "type": "address"
        }
      ],
      "name": "UserAdded",
      "type": "event"
    },
    {
      "inputs": [
        {
          "internalType": "address",
          "name": "_propertyAddress",
          "type": "address"
        },
        {
          "internalType": "uint256",
          "name": "_propertyAmount",
          "type": "uint256"
        },
        {
          "internalType": "uint256",
          "name": "_nftAmount",
          "type": "uint256"
        },
        {
          "components": [
            {
              "internalType": "uint256",
              "name": "rooms",
              "type": "uint256"
            },
            {
              "internalType": "uint256",
              "name": "squareFoot",
              "type": "uint256"
            },
            {
              "internalType": "uint256",
              "name": "listPrice",
              "type": "uint256"
            }
          ],
          "internalType": "struct AddProperty.PropertyMetadata",
          "name": "_metadata",
          "type": "tuple"
        }
      ],
      "name": "addPropertyToListing",
      "outputs": [],
      "stateMutability": "nonpayable",
      "type": "function"
    },
    {
      "inputs": [
        {
          "internalType": "address",
          "name": "_user",
          "type": "address"
        }
      ],
      "name": "addUser",
      "outputs": [],
      "stateMutability": "nonpayable",
      "type": "function"
    },
    {
      "inputs": [
        {
          "internalType": "uint256",
          "name": "rooms",
          "type": "uint256"
        },
        {
          "internalType": "uint256",
          "name": "squareFoot",
          "type": "uint256"
        },
        {
          "internalType": "address",
          "name": "propertyAddr",
          "type": "address"
        },
        {
          "internalType": "uint256",
          "name": "listPrice",
          "type": "uint256"
        }
      ],
      "name": "generatePropertyURI",
      "outputs": [
        {
          "internalType": "string",
          "name": "",
          "type": "string"
        }
      ],
      "stateMutability": "pure",
      "type": "function"
    },
    {
      "inputs": [],
      "name": "getPropertyListings",
      "outputs": [
        {
          "components": [
            {
              "internalType": "address",
              "name": "propertyAddress",
              "type": "address"
            },
            {
              "internalType": "uint256",
              "name": "tokenId",
              "type": "uint256"
            },
            {
              "internalType": "uint256",
              "name": "amount",
              "type": "uint256"
            }
          ],
          "internalType": "struct AddProperty.AddingProperty[]",
          "name": "",
          "type": "tuple[]"
        }
      ],
      "stateMutability": "view",
      "type": "function"
    },
    {
      "inputs": [],
      "name": "getPropertyOwners",
      "outputs": [
        {
          "internalType": "address[]",
          "name": "",
          "type": "address[]"
        }
      ],
      "stateMutability": "view",
      "type": "function"
    },
    {
      "inputs": [],
      "name": "getUsers",
      "outputs": [
        {
          "internalType": "address[]",
          "name": "",
          "type": "address[]"
        }
      ],
      "stateMutability": "view",
      "type": "function"
    },
    {
      "inputs": [
        {
          "internalType": "address",
          "name": "",
          "type": "address"
        }
      ],
      "name": "investorShares",
      "outputs": [
        {
          "internalType": "uint256",
          "name": "",
          "type": "uint256"
        }
      ],
      "stateMutability": "view",
      "type": "function"
    },
    {
      "inputs": [
        {
          "internalType": "address",
          "name": "",
          "type": "address"
        }
      ],
      "name": "isPropertyAddressListed",
      "outputs": [
        {
          "internalType": "bool",
          "name": "",
          "type": "bool"
        }
      ],
      "stateMutability": "view",
      "type": "function"
    },
    {
      "inputs": [
        {
          "internalType": "address",
          "name": "",
          "type": "address"
        }
      ],
      "name": "isUser",
      "outputs": [
        {
          "internalType": "bool",
          "name": "",
          "type": "bool"
        }
      ],
      "stateMutability": "view",
      "type": "function"
    },
    {
      "inputs": [
        {
          "internalType": "address",
          "name": "",
          "type": "address"
        },
        {
          "internalType": "address",
          "name": "",
          "type": "address"
        },
        {
          "internalType": "uint256[]",
          "name": "",
          "type": "uint256[]"
        },
        {
          "internalType": "uint256[]",
          "name": "",
          "type": "uint256[]"
        },
        {
          "internalType": "bytes",
          "name": "",
          "type": "bytes"
        }
      ],
      "name": "onERC1155BatchReceived",
      "outputs": [
        {
          "internalType": "bytes4",
          "name": "",
          "type": "bytes4"
        }
      ],
      "stateMutability": "nonpayable",
      "type": "function"
    },
    {
      "inputs": [
        {
          "internalType": "address",
          "name": "",
          "type": "address"
        },
        {
          "internalType": "address",
          "name": "",
          "type": "address"
        },
        {
          "internalType": "uint256",
          "name": "",
          "type": "uint256"
        },
        {
          "internalType": "uint256",
          "name": "",
          "type": "uint256"
        },
        {
          "internalType": "bytes",
          "name": "",
          "type": "bytes"
        }
      ],
      "name": "onERC1155Received",
      "outputs": [
        {
          "internalType": "bytes4",
          "name": "",
          "type": "bytes4"
        }
      ],
      "stateMutability": "nonpayable",
      "type": "function"
    },
    {
      "inputs": [
        {
          "internalType": "uint256",
          "name": "",
          "type": "uint256"
        }
      ],
      "name": "properties",
      "outputs": [
        {
          "internalType": "address",
          "name": "propertyAddress",
          "type": "address"
        },
        {
          "internalType": "uint256",
          "name": "tokenId",
          "type": "uint256"
        },
        {
          "internalType": "uint256",
          "name": "amount",
          "type": "uint256"
        }
      ],
      "stateMutability": "view",
      "type": "function"
    },
    {
      "inputs": [],
      "name": "property",
      "outputs": [
        {
          "internalType": "contract Property",
          "name": "",
          "type": "address"
        }
      ],
      "stateMutability": "view",
      "type": "function"
    },
    {
      "inputs": [
        {
          "internalType": "uint256",
          "name": "",
          "type": "uint256"
        }
      ],
      "name": "propertyAddress",
      "outputs": [
        {
          "internalType": "address",
          "name": "",
          "type": "address"
        }
      ],
      "stateMutability": "view",
      "type": "function"
    },
    {
      "inputs": [
        {
          "internalType": "uint256",
          "name": "",
          "type": "uint256"
        },
        {
          "internalType": "address",
          "name": "",
          "type": "address"
        }
      ],
      "name": "propertyInvestments",
      "outputs": [
        {
          "internalType": "uint256",
          "name": "",
          "type": "uint256"
        }
      ],
      "stateMutability": "view",
      "type": "function"
    },
    {
      "inputs": [
        {
          "internalType": "uint256",
          "name": "",
          "type": "uint256"
        }
      ],
      "name": "propertyOwnersList",
      "outputs": [
        {
          "internalType": "address",
          "name": "",
          "type": "address"
        }
      ],
      "stateMutability": "view",
      "type": "function"
    },
    {
      "inputs": [
        {
          "internalType": "uint256",
          "name": "",
          "type": "uint256"
        }
      ],
      "name": "propertyStatus",
      "outputs": [
        {
          "internalType": "enum AddProperty.PropertyStatus",
          "name": "",
          "type": "uint8"
        }
      ],
      "stateMutability": "view",
      "type": "function"
    },
    {
      "inputs": [
        {
          "internalType": "bytes4",
          "name": "interfaceId",
          "type": "bytes4"
        }
      ],
      "name": "supportsInterface",
      "outputs": [
        {
          "internalType": "bool",
          "name": "",
          "type": "bool"
        }
      ],
      "stateMutability": "view",
      "type": "function"
    },
    {
      "inputs": [
        {
          "internalType": "uint256",
          "name": "",
          "type": "uint256"
        }
      ],
      "name": "users",
      "outputs": [
        {
          "internalType": "address",
          "name": "",
          "type": "address"
        }
      ],
      "stateMutability": "view",
      "type": "function"
    }
  ],
  "bytecode": "0x60806040526001600a5534801561001557600080fd5b506040516117a43803806117a483398101604081905261003491610059565b600080546001600160a01b0319166001600160a01b0392909216919091179055610089565b60006020828403121561006b57600080fd5b81516001600160a01b038116811461008257600080fd5b9392505050565b61170c806100986000396000f3fe608060405234801561001057600080fd5b50600436106101205760003560e01c80634acf910c116100ad578063d3690b6a11610071578063d3690b6a14610301578063f23a6e6114610321578063f6d916a114610340578063f713781c14610369578063f7b108081461037c57600080fd5b80634acf910c1461025257806356e01c471461028b57806384fa2a49146102ae57806399a9c8f7146102b6578063bc197c81146102c957600080fd5b8063176fd3f0116100f4578063176fd3f0146101ac5780631d56284a146101d7578063365b98b2146102075780634209fff11461021a578063421b2d8b1461023d57600080fd5b8062ce8e3e1461012557806301ffc9a7146101435780630452255914610177578063064c24451461018c575b600080fd5b61012d6103b4565b60405161013a9190610f10565b60405180910390f35b610167610151366004610f5d565b6001600160e01b031916630271189760e51b1490565b604051901515815260200161013a565b61017f610416565b60405161013a9190610f87565b61019f61019a366004611005565b610498565b60405161013a9190611092565b6000546101bf906001600160a01b031681565b6040516001600160a01b03909116815260200161013a565b6101fa6101e53660046110a5565b60086020526000908152604090205460ff1681565b60405161013a91906110be565b6101bf6102153660046110a5565b610520565b6101676102283660046110e6565b60096020526000908152604090205460ff1681565b61025061024b3660046110e6565b61054a565b005b61027d610260366004611101565b600760209081526000928352604080842090915290825290205481565b60405190815260200161013a565b6101676102993660046110e6565b60056020526000908152604090205460ff1681565b61012d610613565b6101bf6102c43660046110a5565b610673565b6102e86102d7366004611264565b63bc197c8160e01b95945050505050565b6040516001600160e01b0319909116815260200161013a565b61027d61030f3660046110e6565b60066020526000908152604090205481565b6102e861032f36600461130e565b63f23a6e6160e01b95945050505050565b6101bf61034e3660046110a5565b6004602052600090815260409020546001600160a01b031681565b610250610377366004611373565b610683565b61038f61038a3660046110a5565b6109b2565b604080516001600160a01b03909416845260208401929092529082015260600161013a565b6060600380548060200260200160405190810160405280929190818152602001828054801561040c57602002820191906000526020600020905b81546001600160a01b031681526001909101906020018083116103ee575b5050505050905090565b60606001805480602002602001604051908101604052809291908181526020016000905b8282101561048f576000848152602090819020604080516060810182526003860290920180546001600160a01b031683526001808201548486015260029091015491830191909152908352909201910161043a565b50505050905090565b606060006104f36104a8876109ef565b6104b1876109ef565b6104c3876001600160a01b0316610a82565b6104cc876109ef565b6040516020016104df9493929190611422565b604051602081830303815290604052610b0c565b9050806040516020016105069190611590565b604051602081830303815290604052915050949350505050565b6003818154811061053057600080fd5b6000918252602090912001546001600160a01b0316905081565b6001600160a01b03811660009081526009602052604090205460ff16156105845760405163b6bba54d60e01b815260040160405180910390fd5b6003805460018082019092557fc2575a0e9e593c00f959f8c92f12db2869c3395a3b0502d05e2516446f71f85b0180546001600160a01b0319166001600160a01b038416908117909155600081815260096020526040808220805460ff1916909417909355915190917f19ef9a4877199f89440a26acb26895ec02ed86f2df1aeaa90dc18041b892f71f91a250565b6060600280548060200260200160405190810160405280929190818152602001828054801561040c576020028201919060005260206000209081546001600160a01b031681526001909101906020018083116103ee575050505050905090565b6002818154811061053057600080fd5b3360009081526009602052604090205460ff166106b3576040516335be767960e01b815260040160405180910390fd5b6001600160a01b0384166106da57604051637ef22f3160e11b815260040160405180910390fd5b6001600160a01b03841660009081526005602052604090205460ff161561071457604051630fde598160e01b815260040160405180910390fd5b600a805460009182610725836115eb565b90915550604080516060810182526001600160a01b0388811680835260208084018681528486018b81526001805480820182556000828152885160039092027fb10e2d527612073b26eecdfd717e6a320cf44b4afac2b0732d9fcbe2b7fa0cf681018054939099166001600160a01b03199384161790985593517fb10e2d527612073b26eecdfd717e6a320cf44b4afac2b0732d9fcbe2b7fa0cf788015591517fb10e2d527612073b26eecdfd717e6a320cf44b4afac2b0732d9fcbe2b7fa0cf89096019590955587825260088352868220805460ff191686179055600483528682208054821690941790935560028054948501815581527f405787fa12a823e0f2b7631cc41b3ba8828b3321ca811111fa75cd3aa3bb5ace909301805433931692909217909155865190870151938701519495509193909261086a92918a90610498565b6000546040516302fe530560e01b81529192506001600160a01b0316906302fe53059061089b908490600401611092565b600060405180830381600087803b1580156108b557600080fd5b505af11580156108c9573d6000803e3d6000fd5b50506000805460405163731133e960e01b815233600482015260248101889052604481018a90526080606482015260848101929092526001600160a01b0316925063731133e9915060a401600060405180830381600087803b15801561092e57600080fd5b505af1158015610942573d6000803e3d6000fd5b5050506001600160a01b03881660008181526005602052604090819020805460ff1916600117905551909150339085907f35bf97d267d713e04bb1d7249bb9528dda725942e7437d99a19b4f5535dcc11d906109a1908b908790611604565b60405180910390a450505050505050565b600181815481106109c257600080fd5b60009182526020909120600390910201805460018201546002909201546001600160a01b03909116925083565b606060006109fc83610b32565b600101905060008167ffffffffffffffff811115610a1c57610a1c61112d565b6040519080825280601f01601f191660200182016040528015610a46576020820181803683370190505b5090508181016020015b600019016f181899199a1a9b1b9c1cb0b131b232b360811b600a86061a8153600a8504945084610a5057509392505050565b6060610b0682610afe8460ff60806fffffffffffffffffffffffffffffffff83119081029290921c604067ffffffffffffffff82119081029190911c602063ffffffff82119081029190911c61ffff811160108181029290921c9490941160029094026004909202600890930294029390930101919091010190565b600101610c0a565b92915050565b6060610b0682604051806060016040528060408152602001611697604091396001610d8e565b60008072184f03e93ff9f4daa797ed6e38ed64bf6a1f0160401b8310610b715772184f03e93ff9f4daa797ed6e38ed64bf6a1f0160401b830492506040015b6d04ee2d6d415b85acef81000000008310610b9d576d04ee2d6d415b85acef8100000000830492506020015b662386f26fc100008310610bbb57662386f26fc10000830492506010015b6305f5e1008310610bd3576305f5e100830492506008015b6127108310610be757612710830492506004015b60648310610bf9576064830492506002015b600a8310610b065760010192915050565b6060826000610c1a84600261161d565b610c25906002611634565b67ffffffffffffffff811115610c3d57610c3d61112d565b6040519080825280601f01601f191660200182016040528015610c67576020820181803683370190505b509050600360fc1b81600081518110610c8257610c82611647565b60200101906001600160f81b031916908160001a905350600f60fb1b81600181518110610cb157610cb1611647565b60200101906001600160f81b031916908160001a9053506000610cd585600261161d565b610ce0906001611634565b90505b6001811115610d58576f181899199a1a9b1b9c1cb0b131b232b360811b83600f1660108110610d1457610d14611647565b1a60f81b828281518110610d2a57610d2a611647565b60200101906001600160f81b031916908160001a90535060049290921c91610d518161165d565b9050610ce3565b508115610d865760405163e22e27eb60e01b8152600481018690526024810185905260440160405180910390fd5b949350505050565b60608351600003610dae5750604080516020810190915260008152610f09565b600082610ddf57600385516004610dc5919061161d565b610dd0906002611634565b610dda9190611674565b610e04565b600385516002610def9190611634565b610df99190611674565b610e0490600461161d565b905060008167ffffffffffffffff811115610e2157610e2161112d565b6040519080825280601f01601f191660200182016040528015610e4b576020820181803683370190505b50905060018501602082018788518901602081018051600082525b82841015610ec1576003840193508351603f8160121c168701518653600186019550603f81600c1c168701518653600186019550603f8160061c168701518653600186019550603f8116870151865350600185019450610e66565b905250508515610f0257600388510660018114610ee55760028114610ef857610f00565b603d6001830353603d6002830353610f00565b603d60018303535b505b5090925050505b9392505050565b6020808252825182820181905260009190848201906040850190845b81811015610f515783516001600160a01b031683529284019291840191600101610f2c565b50909695505050505050565b600060208284031215610f6f57600080fd5b81356001600160e01b031981168114610f0957600080fd5b602080825282518282018190526000919060409081850190868401855b82811015610fdc57815180516001600160a01b0316855286810151878601528501518585015260609093019290850190600101610fa4565b5091979650505050505050565b80356001600160a01b038116811461100057600080fd5b919050565b6000806000806080858703121561101b57600080fd5b843593506020850135925061103260408601610fe9565b9396929550929360600135925050565b60005b8381101561105d578181015183820152602001611045565b50506000910152565b6000815180845261107e816020860160208601611042565b601f01601f19169290920160200192915050565b602081526000610f096020830184611066565b6000602082840312156110b757600080fd5b5035919050565b60208101600483106110e057634e487b7160e01b600052602160045260246000fd5b91905290565b6000602082840312156110f857600080fd5b610f0982610fe9565b6000806040838503121561111457600080fd5b8235915061112460208401610fe9565b90509250929050565b634e487b7160e01b600052604160045260246000fd5b604051601f8201601f1916810167ffffffffffffffff8111828210171561116c5761116c61112d565b604052919050565b600082601f83011261118557600080fd5b8135602067ffffffffffffffff8211156111a1576111a161112d565b8160051b6111b0828201611143565b92835284810182019282810190878511156111ca57600080fd5b83870192505b848310156111e9578235825291830191908301906111d0565b979650505050505050565b600082601f83011261120557600080fd5b813567ffffffffffffffff81111561121f5761121f61112d565b611232601f8201601f1916602001611143565b81815284602083860101111561124757600080fd5b816020850160208301376000918101602001919091529392505050565b600080600080600060a0868803121561127c57600080fd5b61128586610fe9565b945061129360208701610fe9565b9350604086013567ffffffffffffffff808211156112b057600080fd5b6112bc89838a01611174565b945060608801359150808211156112d257600080fd5b6112de89838a01611174565b935060808801359150808211156112f457600080fd5b50611301888289016111f4565b9150509295509295909350565b600080600080600060a0868803121561132657600080fd5b61132f86610fe9565b945061133d60208701610fe9565b93506040860135925060608601359150608086013567ffffffffffffffff81111561136757600080fd5b611301888289016111f4565b60008060008084860360c081121561138a57600080fd5b61139386610fe9565b945060208601359350604086013592506060605f19820112156113b557600080fd5b506040516060810181811067ffffffffffffffff821117156113d9576113d961112d565b8060405250606086013581526080860135602082015260a086013560408201528091505092959194509250565b60008151611418818560208601611042565b9290920192915050565b721ec89b985b59488e88941c9bdc195c9d1e488b606a1b81527f226465736372697074696f6e223a2250726f70657274792044657363726970746013820152641a5bdb888b60da1b60338201527f22696d616765223a22697066733a2f2f516d57675a6d58567670383355704c7560388201527f68526451555777543478384e59505936376b4633753545325a716b74796e222c60588201527f2261747472696275746573223a7b22726f6f6d73223a22000000000000000000607882015284516000906114f781608f850160208a01611042565b6f11161139b8bab0b932a337b7ba111d1160811b608f91840191820152855161152781609f840160208a01611042565b74111611383937b832b93a3ca0b2323932b9b9911d1160591b609f92909101918201526111e961158161157b61156060b4850189611406565b6e1116113634b9ba283934b1b2911d1160891b8152600f0190565b86611406565b62227d7d60e81b815260030190565b7f646174613a6170706c69636174696f6e2f6a736f6e3b6261736536342c0000008152600082516115c881601d850160208701611042565b91909101601d0192915050565b634e487b7160e01b600052601160045260246000fd5b6000600182016115fd576115fd6115d5565b5060010190565b828152604060208201526000610d866040830184611066565b8082028115828204841417610b0657610b066115d5565b80820180821115610b0657610b066115d5565b634e487b7160e01b600052603260045260246000fd5b60008161166c5761166c6115d5565b506000190190565b60008261169157634e487b7160e01b600052601260045260246000fd5b50049056fe4142434445464748494a4b4c4d4e4f505152535455565758595a6162636465666768696a6b6c6d6e6f707172737475767778797a303132333435363738392b2fa2646970667358221220387474b1344195977a368d47a344d2c25246b6d810b60fad44f7bb0c6ecbf06364736f6c63430008180033",
  "linkReferences": {},
  "deployedLinkReferences": {}
}