{
  "_format": "hh-sol-artifact-1",
  "contractName": "AddProperty",
  "sourceName": "contracts/AddProperty.sol",
  "abi": [
    {
      "inputs": [
        {
          "internalType": "address",
          "name": "_owner",
          "type": "address"
        },
        {
          "internalType": "uint256",
          "name": "_propertyId",
          "type": "uint256"
        },
        {
          "internalType": "address",
          "name": "_property",
          "type": "address"
        }
      ],
      "stateMutability": "nonpayable",
      "type": "constructor"
    },
    {
      "inputs": [],
      "name": "AddProperty__InvalidAddress",
      "type": "error"
    },
    {
      "inputs": [],
      "name": "AddProperty__NotOwner",
      "type": "error"
    },
    {
      "inputs": [],
      "name": "AddProperty__NotUser",
      "type": "error"
    },
    {
      "inputs": [],
      "name": "AddProperty__PropertyAlreadyExists",
      "type": "error"
    },
    {
      "inputs": [],
      "name": "AddProperty__UserAlreadyExists",
      "type": "error"
    },
    {
      "anonymous": false,
      "inputs": [
        {
          "indexed": true,
          "internalType": "uint256",
          "name": "propertyId",
          "type": "uint256"
        },
        {
          "indexed": true,
          "internalType": "address",
          "name": "owner",
          "type": "address"
        },
        {
          "indexed": true,
          "internalType": "address",
          "name": "propertyAddress",
          "type": "address"
        },
        {
          "indexed": false,
          "internalType": "uint256",
          "name": "tokenId",
          "type": "uint256"
        },
        {
          "indexed": false,
          "internalType": "uint256",
          "name": "amount",
          "type": "uint256"
        },
        {
          "indexed": false,
          "internalType": "string",
          "name": "propertyURI",
          "type": "string"
        }
      ],
      "name": "PropertyAdded",
      "type": "event"
    },
    {
      "anonymous": false,
      "inputs": [
        {
          "indexed": true,
          "internalType": "uint256",
          "name": "propertyId",
          "type": "uint256"
        },
        {
          "indexed": true,
          "internalType": "address",
          "name": "user",
          "type": "address"
        }
      ],
      "name": "UserAdded",
      "type": "event"
    },
    {
      "inputs": [
        {
          "internalType": "address",
          "name": "_propertyAddress",
          "type": "address"
        },
        {
          "internalType": "uint256",
          "name": "_tokenId",
          "type": "uint256"
        },
        {
          "internalType": "uint256",
          "name": "_amount",
          "type": "uint256"
        },
        {
          "internalType": "uint256",
          "name": "_nftAmount",
          "type": "uint256"
        },
        {
          "internalType": "string",
          "name": "_propertyURI",
          "type": "string"
        }
      ],
      "name": "addPropertyToListing",
      "outputs": [],
      "stateMutability": "nonpayable",
      "type": "function"
    },
    {
      "inputs": [
        {
          "internalType": "address",
          "name": "_user",
          "type": "address"
        }
      ],
      "name": "addUser",
      "outputs": [],
      "stateMutability": "nonpayable",
      "type": "function"
    },
    {
      "inputs": [],
      "name": "getPropertyListings",
      "outputs": [
        {
          "components": [
            {
              "internalType": "address",
              "name": "propertyAddress",
              "type": "address"
            },
            {
              "internalType": "uint256",
              "name": "tokenId",
              "type": "uint256"
            },
            {
              "internalType": "uint256",
              "name": "amount",
              "type": "uint256"
            },
            {
              "internalType": "string",
              "name": "popertyURI",
              "type": "string"
            }
          ],
          "internalType": "struct AddProperty.AddingProperty[]",
          "name": "",
          "type": "tuple[]"
        }
      ],
      "stateMutability": "view",
      "type": "function"
    },
    {
      "inputs": [],
      "name": "getPropertyOwners",
      "outputs": [
        {
          "internalType": "address[]",
          "name": "",
          "type": "address[]"
        }
      ],
      "stateMutability": "view",
      "type": "function"
    },
    {
      "inputs": [],
      "name": "getUsers",
      "outputs": [
        {
          "internalType": "address[]",
          "name": "",
          "type": "address[]"
        }
      ],
      "stateMutability": "view",
      "type": "function"
    },
    {
      "inputs": [
        {
          "internalType": "address",
          "name": "",
          "type": "address"
        }
      ],
      "name": "investorShares",
      "outputs": [
        {
          "internalType": "uint256",
          "name": "",
          "type": "uint256"
        }
      ],
      "stateMutability": "view",
      "type": "function"
    },
    {
      "inputs": [
        {
          "internalType": "address",
          "name": "",
          "type": "address"
        }
      ],
      "name": "isUser",
      "outputs": [
        {
          "internalType": "bool",
          "name": "",
          "type": "bool"
        }
      ],
      "stateMutability": "view",
      "type": "function"
    },
    {
      "inputs": [
        {
          "internalType": "address",
          "name": "",
          "type": "address"
        },
        {
          "internalType": "address",
          "name": "",
          "type": "address"
        },
        {
          "internalType": "uint256[]",
          "name": "",
          "type": "uint256[]"
        },
        {
          "internalType": "uint256[]",
          "name": "",
          "type": "uint256[]"
        },
        {
          "internalType": "bytes",
          "name": "",
          "type": "bytes"
        }
      ],
      "name": "onERC1155BatchReceived",
      "outputs": [
        {
          "internalType": "bytes4",
          "name": "",
          "type": "bytes4"
        }
      ],
      "stateMutability": "nonpayable",
      "type": "function"
    },
    {
      "inputs": [
        {
          "internalType": "address",
          "name": "",
          "type": "address"
        },
        {
          "internalType": "address",
          "name": "",
          "type": "address"
        },
        {
          "internalType": "uint256",
          "name": "",
          "type": "uint256"
        },
        {
          "internalType": "uint256",
          "name": "",
          "type": "uint256"
        },
        {
          "internalType": "bytes",
          "name": "",
          "type": "bytes"
        }
      ],
      "name": "onERC1155Received",
      "outputs": [
        {
          "internalType": "bytes4",
          "name": "",
          "type": "bytes4"
        }
      ],
      "stateMutability": "nonpayable",
      "type": "function"
    },
    {
      "inputs": [
        {
          "internalType": "uint256",
          "name": "",
          "type": "uint256"
        }
      ],
      "name": "properties",
      "outputs": [
        {
          "internalType": "address",
          "name": "propertyAddress",
          "type": "address"
        },
        {
          "internalType": "uint256",
          "name": "tokenId",
          "type": "uint256"
        },
        {
          "internalType": "uint256",
          "name": "amount",
          "type": "uint256"
        },
        {
          "internalType": "string",
          "name": "popertyURI",
          "type": "string"
        }
      ],
      "stateMutability": "view",
      "type": "function"
    },
    {
      "inputs": [],
      "name": "property",
      "outputs": [
        {
          "internalType": "contract Property",
          "name": "",
          "type": "address"
        }
      ],
      "stateMutability": "view",
      "type": "function"
    },
    {
      "inputs": [
        {
          "internalType": "uint256",
          "name": "",
          "type": "uint256"
        }
      ],
      "name": "propertyAddress",
      "outputs": [
        {
          "internalType": "address",
          "name": "",
          "type": "address"
        }
      ],
      "stateMutability": "view",
      "type": "function"
    },
    {
      "inputs": [
        {
          "internalType": "uint256",
          "name": "",
          "type": "uint256"
        },
        {
          "internalType": "address",
          "name": "",
          "type": "address"
        }
      ],
      "name": "propertyInvestments",
      "outputs": [
        {
          "internalType": "uint256",
          "name": "",
          "type": "uint256"
        }
      ],
      "stateMutability": "view",
      "type": "function"
    },
    {
      "inputs": [
        {
          "internalType": "uint256",
          "name": "",
          "type": "uint256"
        }
      ],
      "name": "propertyOwnersList",
      "outputs": [
        {
          "internalType": "address",
          "name": "",
          "type": "address"
        }
      ],
      "stateMutability": "view",
      "type": "function"
    },
    {
      "inputs": [
        {
          "internalType": "uint256",
          "name": "",
          "type": "uint256"
        }
      ],
      "name": "propertyStatus",
      "outputs": [
        {
          "internalType": "enum AddProperty.PropertyStatus",
          "name": "",
          "type": "uint8"
        }
      ],
      "stateMutability": "view",
      "type": "function"
    },
    {
      "inputs": [],
      "name": "s_owner",
      "outputs": [
        {
          "internalType": "address",
          "name": "",
          "type": "address"
        }
      ],
      "stateMutability": "view",
      "type": "function"
    },
    {
      "inputs": [],
      "name": "s_propertyId",
      "outputs": [
        {
          "internalType": "uint256",
          "name": "",
          "type": "uint256"
        }
      ],
      "stateMutability": "view",
      "type": "function"
    },
    {
      "inputs": [
        {
          "internalType": "bytes4",
          "name": "interfaceId",
          "type": "bytes4"
        }
      ],
      "name": "supportsInterface",
      "outputs": [
        {
          "internalType": "bool",
          "name": "",
          "type": "bool"
        }
      ],
      "stateMutability": "view",
      "type": "function"
    },
    {
      "inputs": [
        {
          "internalType": "uint256",
          "name": "",
          "type": "uint256"
        }
      ],
      "name": "users",
      "outputs": [
        {
          "internalType": "address",
          "name": "",
          "type": "address"
        }
      ],
      "stateMutability": "view",
      "type": "function"
    }
  ],
  "bytecode": "0x608060405234801561001057600080fd5b5060405161127a38038061127a83398101604081905261002f91610082565b600080546001600160a01b039485166001600160a01b031991821617909155600192909255600280549190931691161790556100be565b80516001600160a01b038116811461007d57600080fd5b919050565b60008060006060848603121561009757600080fd5b6100a084610066565b9250602084015191506100b560408501610066565b90509250925092565b6111ad806100cd6000396000f3fe608060405234801561001057600080fd5b50600436106101205760003560e01c80635d48b3fb116100ad578063dc27ad8411610071578063dc27ad84146102f1578063e3978240146102fa578063f23a6e611461030d578063f6d916a11461032c578063f7b108081461035557600080fd5b80635d48b3fb1461026b57806384fa2a491461027e57806399a9c8f714610286578063bc197c8114610299578063d3690b6a146102d157600080fd5b80631d56284a116100f45780631d56284a146101b7578063365b98b2146101e75780634209fff1146101fa578063421b2d8b1461021d5780634acf910c1461023257600080fd5b8062ce8e3e1461012557806301ffc9a7146101435780630452255914610177578063176fd3f01461018c575b600080fd5b61012d610378565b60405161013a9190610ad2565b60405180910390f35b610167610151366004610b1f565b6001600160e01b031916630271189760e51b1490565b604051901515815260200161013a565b61017f6103da565b60405161013a9190610b96565b60025461019f906001600160a01b031681565b6040516001600160a01b03909116815260200161013a565b6101da6101c5366004610c2c565b60096020526000908152604090205460ff1681565b60405161013a9190610c5b565b61019f6101f5366004610c2c565b6104f6565b610167610208366004610c9f565b600a6020526000908152604090205460ff1681565b61023061022b366004610c9f565b610520565b005b61025d610240366004610cba565b600860209081526000928352604080842090915290825290205481565b60405190815260200161013a565b610230610279366004610d85565b610616565b61012d610990565b61019f610294366004610c2c565b6109f0565b6102b86102a7366004610ea4565b63bc197c8160e01b95945050505050565b6040516001600160e01b0319909116815260200161013a565b61025d6102df366004610c9f565b60076020526000908152604090205481565b61025d60015481565b60005461019f906001600160a01b031681565b6102b861031b366004610f41565b63f23a6e6160e01b95945050505050565b61019f61033a366004610c2c565b6006602052600090815260409020546001600160a01b031681565b610368610363366004610c2c565b610a00565b60405161013a9493929190610fa6565b606060058054806020026020016040519081016040528092919081815260200182805480156103d057602002820191906000526020600020905b81546001600160a01b031681526001909101906020018083116103b2575b5050505050905090565b60606003805480602002602001604051908101604052809291908181526020016000905b828210156104ed576000848152602090819020604080516080810182526004860290920180546001600160a01b0316835260018101549383019390935260028301549082015260038201805491929160608401919061045c90610fdd565b80601f016020809104026020016040519081016040528092919081815260200182805461048890610fdd565b80156104d55780601f106104aa576101008083540402835291602001916104d5565b820191906000526020600020905b8154815290600101906020018083116104b857829003601f168201915b505050505081525050815260200190600101906103fe565b50505050905090565b6005818154811061050657600080fd5b6000918252602090912001546001600160a01b0316905081565b6000546001600160a01b0316331461054b57604051631f46fe7360e11b815260040160405180910390fd5b6001600160a01b0381166000908152600a602052604090205460ff16156105855760405163b6bba54d60e01b815260040160405180910390fd5b6005805460018082019092557f036b6384b5eca791c62761152d0c79bb0604c104a5fb6f4eb0703f3154bb3db00180546001600160a01b0319166001600160a01b0384169081179091556000818152600a6020526040808220805460ff191685179055925492519192917f785caf8769bd44d265fce8c1a3327e91646fe19be3a87506383b5e95a5c434949190a350565b336000908152600a602052604090205460ff16610646576040516335be767960e01b815260040160405180910390fd5b60008481526009602052604081205460ff16600381111561066957610669610c45565b1461068757604051630fde598160e01b815260040160405180910390fd5b6001600160a01b0385166106ae57604051637ef22f3160e11b815260040160405180910390fd5b600180549060006106be83611017565b9091555050604080516080810182526001600160a01b03878116825260208201878152928201868152606083018581526003805460018101825560009190915284517fc2575a0e9e593c00f959f8c92f12db2869c3395a3b0502d05e2516446f71f85b600490920291820180546001600160a01b0319169190951617845594517fc2575a0e9e593c00f959f8c92f12db2869c3395a3b0502d05e2516446f71f85c86015590517fc2575a0e9e593c00f959f8c92f12db2869c3395a3b0502d05e2516446f71f85d85015551919283927fc2575a0e9e593c00f959f8c92f12db2869c3395a3b0502d05e2516446f71f85e909101906107bc908261108f565b5050506000858152600960209081526040808320805460ff1916600190811790915580548452600690925280832080546001600160a01b0319908116339081179092556004805480860182558187527f8a35acfbc15ff81a39ae7d344fd709f28e8600b4aa8c65c6b64bfe7fe36bd19b01805490921690921790556002549254915163731133e960e01b815230918101919091526024810191909152604481018690526080606482015260848101929092526001600160a01b03169063731133e99060a401600060405180830381600087803b15801561089b57600080fd5b505af11580156108af573d6000803e3d6000fd5b5050600254600154604051637921219560e11b815230600482015233602482015260448101919091526064810187905260a06084820152600060a48201526001600160a01b03909116925063f242432a915060c401600060405180830381600087803b15801561091e57600080fd5b505af1158015610932573d6000803e3d6000fd5b50505050856001600160a01b0316336001600160a01b03166001547ff42d9d327ec42b7755f2c70779dcdde7f8648891e7446dd5b1e36ad918f038258888876040516109809392919061114f565b60405180910390a4505050505050565b606060048054806020026020016040519081016040528092919081815260200182805480156103d0576020028201919060005260206000209081546001600160a01b031681526001909101906020018083116103b2575050505050905090565b6004818154811061050657600080fd5b60038181548110610a1057600080fd5b600091825260209091206004909102018054600182015460028301546003840180546001600160a01b03909416955091939092909190610a4f90610fdd565b80601f0160208091040260200160405190810160405280929190818152602001828054610a7b90610fdd565b8015610ac85780601f10610a9d57610100808354040283529160200191610ac8565b820191906000526020600020905b815481529060010190602001808311610aab57829003601f168201915b5050505050905084565b6020808252825182820181905260009190848201906040850190845b81811015610b135783516001600160a01b031683529284019291840191600101610aee565b50909695505050505050565b600060208284031215610b3157600080fd5b81356001600160e01b031981168114610b4957600080fd5b9392505050565b6000815180845260005b81811015610b7657602081850181015186830182015201610b5a565b506000602082860101526020601f19601f83011685010191505092915050565b600060208083018184528085518083526040925060408601915060408160051b87010184880160005b83811015610c1e57888303603f19018552815180516001600160a01b0316845287810151888501528681015187850152606090810151608091850182905290610c0a81860183610b50565b968901969450505090860190600101610bbf565b509098975050505050505050565b600060208284031215610c3e57600080fd5b5035919050565b634e487b7160e01b600052602160045260246000fd5b6020810160048310610c7d57634e487b7160e01b600052602160045260246000fd5b91905290565b80356001600160a01b0381168114610c9a57600080fd5b919050565b600060208284031215610cb157600080fd5b610b4982610c83565b60008060408385031215610ccd57600080fd5b82359150610cdd60208401610c83565b90509250929050565b634e487b7160e01b600052604160045260246000fd5b604051601f8201601f1916810167ffffffffffffffff81118282101715610d2557610d25610ce6565b604052919050565b600067ffffffffffffffff831115610d4757610d47610ce6565b610d5a601f8401601f1916602001610cfc565b9050828152838383011115610d6e57600080fd5b828260208301376000602084830101529392505050565b600080600080600060a08688031215610d9d57600080fd5b610da686610c83565b9450602086013593506040860135925060608601359150608086013567ffffffffffffffff811115610dd757600080fd5b8601601f81018813610de857600080fd5b610df788823560208401610d2d565b9150509295509295909350565b600082601f830112610e1557600080fd5b8135602067ffffffffffffffff821115610e3157610e31610ce6565b8160051b610e40828201610cfc565b9283528481018201928281019087851115610e5a57600080fd5b83870192505b84831015610e7957823582529183019190830190610e60565b979650505050505050565b600082601f830112610e9557600080fd5b610b4983833560208501610d2d565b600080600080600060a08688031215610ebc57600080fd5b610ec586610c83565b9450610ed360208701610c83565b9350604086013567ffffffffffffffff80821115610ef057600080fd5b610efc89838a01610e04565b94506060880135915080821115610f1257600080fd5b610f1e89838a01610e04565b93506080880135915080821115610f3457600080fd5b50610df788828901610e84565b600080600080600060a08688031215610f5957600080fd5b610f6286610c83565b9450610f7060208701610c83565b93506040860135925060608601359150608086013567ffffffffffffffff811115610f9a57600080fd5b610df788828901610e84565b60018060a01b0385168152836020820152826040820152608060608201526000610fd36080830184610b50565b9695505050505050565b600181811c90821680610ff157607f821691505b60208210810361101157634e487b7160e01b600052602260045260246000fd5b50919050565b60006001820161103757634e487b7160e01b600052601160045260246000fd5b5060010190565b601f82111561108a576000816000526020600020601f850160051c810160208610156110675750805b601f850160051c820191505b8181101561108657828155600101611073565b5050505b505050565b815167ffffffffffffffff8111156110a9576110a9610ce6565b6110bd816110b78454610fdd565b8461103e565b602080601f8311600181146110f257600084156110da5750858301515b600019600386901b1c1916600185901b178555611086565b600085815260208120601f198616915b8281101561112157888601518255948401946001909101908401611102565b508582101561113f5787850151600019600388901b60f8161c191681555b5050505050600190811b01905550565b83815282602082015260606040820152600061116e6060830184610b50565b9594505050505056fea2646970667358221220a79cf8b85d3f4a94cf4b3b29aaa53d2df467faaafc5a55eac0530333170dd21a64736f6c63430008180033",
  "linkReferences": {},
  "deployedLinkReferences": {}
}