{
  "_format": "hh-sol-artifact-1",
  "contractName": "PropertyToken",
  "sourceName": "contracts/PropertyToken.sol",
  "abi": [
    {
      "inputs": [
        {
          "internalType": "address",
          "name": "defaultAdmin",
          "type": "address"
        }
      ],
      "stateMutability": "nonpayable",
      "type": "constructor"
    },
    {
      "inputs": [],
      "name": "AccessControlBadConfirmation",
      "type": "error"
    },
    {
      "inputs": [
        {
          "internalType": "address",
          "name": "account",
          "type": "address"
        },
        {
          "internalType": "bytes32",
          "name": "neededRole",
          "type": "bytes32"
        }
      ],
      "name": "AccessControlUnauthorizedAccount",
      "type": "error"
    },
    {
      "inputs": [],
      "name": "ECDSAInvalidSignature",
      "type": "error"
    },
    {
      "inputs": [
        {
          "internalType": "uint256",
          "name": "length",
          "type": "uint256"
        }
      ],
      "name": "ECDSAInvalidSignatureLength",
      "type": "error"
    },
    {
      "inputs": [
        {
          "internalType": "bytes32",
          "name": "s",
          "type": "bytes32"
        }
      ],
      "name": "ECDSAInvalidSignatureS",
      "type": "error"
    },
    {
      "inputs": [
        {
          "internalType": "address",
          "name": "spender",
          "type": "address"
        },
        {
          "internalType": "uint256",
          "name": "allowance",
          "type": "uint256"
        },
        {
          "internalType": "uint256",
          "name": "needed",
          "type": "uint256"
        }
      ],
      "name": "ERC20InsufficientAllowance",
      "type": "error"
    },
    {
      "inputs": [
        {
          "internalType": "address",
          "name": "sender",
          "type": "address"
        },
        {
          "internalType": "uint256",
          "name": "balance",
          "type": "uint256"
        },
        {
          "internalType": "uint256",
          "name": "needed",
          "type": "uint256"
        }
      ],
      "name": "ERC20InsufficientBalance",
      "type": "error"
    },
    {
      "inputs": [
        {
          "internalType": "address",
          "name": "approver",
          "type": "address"
        }
      ],
      "name": "ERC20InvalidApprover",
      "type": "error"
    },
    {
      "inputs": [
        {
          "internalType": "address",
          "name": "receiver",
          "type": "address"
        }
      ],
      "name": "ERC20InvalidReceiver",
      "type": "error"
    },
    {
      "inputs": [
        {
          "internalType": "address",
          "name": "sender",
          "type": "address"
        }
      ],
      "name": "ERC20InvalidSender",
      "type": "error"
    },
    {
      "inputs": [
        {
          "internalType": "address",
          "name": "spender",
          "type": "address"
        }
      ],
      "name": "ERC20InvalidSpender",
      "type": "error"
    },
    {
      "inputs": [
        {
          "internalType": "uint256",
          "name": "deadline",
          "type": "uint256"
        }
      ],
      "name": "ERC2612ExpiredSignature",
      "type": "error"
    },
    {
      "inputs": [
        {
          "internalType": "address",
          "name": "signer",
          "type": "address"
        },
        {
          "internalType": "address",
          "name": "owner",
          "type": "address"
        }
      ],
      "name": "ERC2612InvalidSigner",
      "type": "error"
    },
    {
      "inputs": [
        {
          "internalType": "address",
          "name": "account",
          "type": "address"
        },
        {
          "internalType": "uint256",
          "name": "currentNonce",
          "type": "uint256"
        }
      ],
      "name": "InvalidAccountNonce",
      "type": "error"
    },
    {
      "inputs": [],
      "name": "InvalidShortString",
      "type": "error"
    },
    {
      "inputs": [
        {
          "internalType": "string",
          "name": "str",
          "type": "string"
        }
      ],
      "name": "StringTooLong",
      "type": "error"
    },
    {
      "anonymous": false,
      "inputs": [
        {
          "indexed": true,
          "internalType": "address",
          "name": "owner",
          "type": "address"
        },
        {
          "indexed": true,
          "internalType": "address",
          "name": "spender",
          "type": "address"
        },
        {
          "indexed": false,
          "internalType": "uint256",
          "name": "value",
          "type": "uint256"
        }
      ],
      "name": "Approval",
      "type": "event"
    },
    {
      "anonymous": false,
      "inputs": [],
      "name": "EIP712DomainChanged",
      "type": "event"
    },
    {
      "anonymous": false,
      "inputs": [
        {
          "indexed": true,
          "internalType": "bytes32",
          "name": "role",
          "type": "bytes32"
        },
        {
          "indexed": true,
          "internalType": "bytes32",
          "name": "previousAdminRole",
          "type": "bytes32"
        },
        {
          "indexed": true,
          "internalType": "bytes32",
          "name": "newAdminRole",
          "type": "bytes32"
        }
      ],
      "name": "RoleAdminChanged",
      "type": "event"
    },
    {
      "anonymous": false,
      "inputs": [
        {
          "indexed": true,
          "internalType": "bytes32",
          "name": "role",
          "type": "bytes32"
        },
        {
          "indexed": true,
          "internalType": "address",
          "name": "account",
          "type": "address"
        },
        {
          "indexed": true,
          "internalType": "address",
          "name": "sender",
          "type": "address"
        }
      ],
      "name": "RoleGranted",
      "type": "event"
    },
    {
      "anonymous": false,
      "inputs": [
        {
          "indexed": true,
          "internalType": "bytes32",
          "name": "role",
          "type": "bytes32"
        },
        {
          "indexed": true,
          "internalType": "address",
          "name": "account",
          "type": "address"
        },
        {
          "indexed": true,
          "internalType": "address",
          "name": "sender",
          "type": "address"
        }
      ],
      "name": "RoleRevoked",
      "type": "event"
    },
    {
      "anonymous": false,
      "inputs": [
        {
          "indexed": true,
          "internalType": "address",
          "name": "from",
          "type": "address"
        },
        {
          "indexed": true,
          "internalType": "address",
          "name": "to",
          "type": "address"
        },
        {
          "indexed": false,
          "internalType": "uint256",
          "name": "value",
          "type": "uint256"
        }
      ],
      "name": "Transfer",
      "type": "event"
    },
    {
      "inputs": [],
      "name": "DEFAULT_ADMIN_ROLE",
      "outputs": [
        {
          "internalType": "bytes32",
          "name": "",
          "type": "bytes32"
        }
      ],
      "stateMutability": "view",
      "type": "function"
    },
    {
      "inputs": [],
      "name": "DOMAIN_SEPARATOR",
      "outputs": [
        {
          "internalType": "bytes32",
          "name": "",
          "type": "bytes32"
        }
      ],
      "stateMutability": "view",
      "type": "function"
    },
    {
      "inputs": [],
      "name": "MINTER_ROLE",
      "outputs": [
        {
          "internalType": "bytes32",
          "name": "",
          "type": "bytes32"
        }
      ],
      "stateMutability": "view",
      "type": "function"
    },
    {
      "inputs": [
        {
          "internalType": "address",
          "name": "owner",
          "type": "address"
        },
        {
          "internalType": "address",
          "name": "spender",
          "type": "address"
        }
      ],
      "name": "allowance",
      "outputs": [
        {
          "internalType": "uint256",
          "name": "",
          "type": "uint256"
        }
      ],
      "stateMutability": "view",
      "type": "function"
    },
    {
      "inputs": [
        {
          "internalType": "address",
          "name": "spender",
          "type": "address"
        },
        {
          "internalType": "uint256",
          "name": "value",
          "type": "uint256"
        }
      ],
      "name": "approve",
      "outputs": [
        {
          "internalType": "bool",
          "name": "",
          "type": "bool"
        }
      ],
      "stateMutability": "nonpayable",
      "type": "function"
    },
    {
      "inputs": [
        {
          "internalType": "address",
          "name": "account",
          "type": "address"
        }
      ],
      "name": "balanceOf",
      "outputs": [
        {
          "internalType": "uint256",
          "name": "",
          "type": "uint256"
        }
      ],
      "stateMutability": "view",
      "type": "function"
    },
    {
      "inputs": [
        {
          "internalType": "uint256",
          "name": "value",
          "type": "uint256"
        }
      ],
      "name": "burn",
      "outputs": [],
      "stateMutability": "nonpayable",
      "type": "function"
    },
    {
      "inputs": [
        {
          "internalType": "address",
          "name": "account",
          "type": "address"
        },
        {
          "internalType": "uint256",
          "name": "value",
          "type": "uint256"
        }
      ],
      "name": "burnFrom",
      "outputs": [],
      "stateMutability": "nonpayable",
      "type": "function"
    },
    {
      "inputs": [],
      "name": "decimals",
      "outputs": [
        {
          "internalType": "uint8",
          "name": "",
          "type": "uint8"
        }
      ],
      "stateMutability": "view",
      "type": "function"
    },
    {
      "inputs": [],
      "name": "eip712Domain",
      "outputs": [
        {
          "internalType": "bytes1",
          "name": "fields",
          "type": "bytes1"
        },
        {
          "internalType": "string",
          "name": "name",
          "type": "string"
        },
        {
          "internalType": "string",
          "name": "version",
          "type": "string"
        },
        {
          "internalType": "uint256",
          "name": "chainId",
          "type": "uint256"
        },
        {
          "internalType": "address",
          "name": "verifyingContract",
          "type": "address"
        },
        {
          "internalType": "bytes32",
          "name": "salt",
          "type": "bytes32"
        },
        {
          "internalType": "uint256[]",
          "name": "extensions",
          "type": "uint256[]"
        }
      ],
      "stateMutability": "view",
      "type": "function"
    },
    {
      "inputs": [
        {
          "internalType": "bytes32",
          "name": "role",
          "type": "bytes32"
        }
      ],
      "name": "getRoleAdmin",
      "outputs": [
        {
          "internalType": "bytes32",
          "name": "",
          "type": "bytes32"
        }
      ],
      "stateMutability": "view",
      "type": "function"
    },
    {
      "inputs": [
        {
          "internalType": "bytes32",
          "name": "role",
          "type": "bytes32"
        },
        {
          "internalType": "address",
          "name": "account",
          "type": "address"
        }
      ],
      "name": "grantRole",
      "outputs": [],
      "stateMutability": "nonpayable",
      "type": "function"
    },
    {
      "inputs": [
        {
          "internalType": "bytes32",
          "name": "role",
          "type": "bytes32"
        },
        {
          "internalType": "address",
          "name": "account",
          "type": "address"
        }
      ],
      "name": "hasRole",
      "outputs": [
        {
          "internalType": "bool",
          "name": "",
          "type": "bool"
        }
      ],
      "stateMutability": "view",
      "type": "function"
    },
    {
      "inputs": [
        {
          "internalType": "address",
          "name": "to",
          "type": "address"
        },
        {
          "internalType": "uint256",
          "name": "amount",
          "type": "uint256"
        }
      ],
      "name": "mint",
      "outputs": [],
      "stateMutability": "nonpayable",
      "type": "function"
    },
    {
      "inputs": [],
      "name": "name",
      "outputs": [
        {
          "internalType": "string",
          "name": "",
          "type": "string"
        }
      ],
      "stateMutability": "view",
      "type": "function"
    },
    {
      "inputs": [
        {
          "internalType": "address",
          "name": "owner",
          "type": "address"
        }
      ],
      "name": "nonces",
      "outputs": [
        {
          "internalType": "uint256",
          "name": "",
          "type": "uint256"
        }
      ],
      "stateMutability": "view",
      "type": "function"
    },
    {
      "inputs": [
        {
          "internalType": "address",
          "name": "owner",
          "type": "address"
        },
        {
          "internalType": "address",
          "name": "spender",
          "type": "address"
        },
        {
          "internalType": "uint256",
          "name": "value",
          "type": "uint256"
        },
        {
          "internalType": "uint256",
          "name": "deadline",
          "type": "uint256"
        },
        {
          "internalType": "uint8",
          "name": "v",
          "type": "uint8"
        },
        {
          "internalType": "bytes32",
          "name": "r",
          "type": "bytes32"
        },
        {
          "internalType": "bytes32",
          "name": "s",
          "type": "bytes32"
        }
      ],
      "name": "permit",
      "outputs": [],
      "stateMutability": "nonpayable",
      "type": "function"
    },
    {
      "inputs": [
        {
          "internalType": "bytes32",
          "name": "role",
          "type": "bytes32"
        },
        {
          "internalType": "address",
          "name": "callerConfirmation",
          "type": "address"
        }
      ],
      "name": "renounceRole",
      "outputs": [],
      "stateMutability": "nonpayable",
      "type": "function"
    },
    {
      "inputs": [
        {
          "internalType": "bytes32",
          "name": "role",
          "type": "bytes32"
        },
        {
          "internalType": "address",
          "name": "account",
          "type": "address"
        }
      ],
      "name": "revokeRole",
      "outputs": [],
      "stateMutability": "nonpayable",
      "type": "function"
    },
    {
      "inputs": [
        {
          "internalType": "bytes4",
          "name": "interfaceId",
          "type": "bytes4"
        }
      ],
      "name": "supportsInterface",
      "outputs": [
        {
          "internalType": "bool",
          "name": "",
          "type": "bool"
        }
      ],
      "stateMutability": "view",
      "type": "function"
    },
    {
      "inputs": [],
      "name": "symbol",
      "outputs": [
        {
          "internalType": "string",
          "name": "",
          "type": "string"
        }
      ],
      "stateMutability": "view",
      "type": "function"
    },
    {
      "inputs": [],
      "name": "totalSupply",
      "outputs": [
        {
          "internalType": "uint256",
          "name": "",
          "type": "uint256"
        }
      ],
      "stateMutability": "view",
      "type": "function"
    },
    {
      "inputs": [
        {
          "internalType": "address",
          "name": "to",
          "type": "address"
        },
        {
          "internalType": "uint256",
          "name": "value",
          "type": "uint256"
        }
      ],
      "name": "transfer",
      "outputs": [
        {
          "internalType": "bool",
          "name": "",
          "type": "bool"
        }
      ],
      "stateMutability": "nonpayable",
      "type": "function"
    },
    {
      "inputs": [
        {
          "internalType": "address",
          "name": "from",
          "type": "address"
        },
        {
          "internalType": "address",
          "name": "to",
          "type": "address"
        },
        {
          "internalType": "uint256",
          "name": "value",
          "type": "uint256"
        }
      ],
      "name": "transferFrom",
      "outputs": [
        {
          "internalType": "bool",
          "name": "",
          "type": "bool"
        }
      ],
      "stateMutability": "nonpayable",
      "type": "function"
    }
  ],
  "bytecode": "0x6101606040523480156200001257600080fd5b506040516200192f3803806200192f833981016040819052620000359162000308565b6040518060400160405280600d81526020016c283937b832b93a3caa37b5b2b760991b81525080604051806040016040528060018152602001603160f81b8152506040518060400160405280600d81526020016c283937b832b93a3caa37b5b2b760991b815250604051806040016040528060038152602001624d544b60e81b8152508160049081620000c99190620003e1565b506005620000d88282620003e1565b50620000ea91508390506006620001d5565b61012052620000fb816007620001d5565b61014052815160208084019190912060e052815190820120610100524660a0526200018960e05161010051604080517f8b73c3c69bb8fe3d512ecc4cf759cc79239f7b179b0ffacaa9a75d522b39400f60208201529081019290925260608201524660808201523060a082015260009060c00160405160208183030381529060405280519060200120905090565b60805250503060c05250620001a06000826200020e565b50620001cd7f9f2df0fed2c77648de5860a4cc508cd0818c85b8b8a1ab4ceeef8d981c8956a6826200020e565b505062000523565b6000602083511015620001f557620001ed83620002bc565b905062000208565b81620002028482620003e1565b5060ff90505b92915050565b6000828152602081815260408083206001600160a01b038516845290915281205460ff16620002b3576000838152602081815260408083206001600160a01b03861684529091529020805460ff191660011790556200026a3390565b6001600160a01b0316826001600160a01b0316847f2f8788117e7eff1d82e926ec794901d17c78024a50270940304540a733656f0d60405160405180910390a450600162000208565b50600062000208565b600080829050601f81511115620002f3578260405163305a27a960e01b8152600401620002ea9190620004ad565b60405180910390fd5b80516200030082620004fe565b179392505050565b6000602082840312156200031b57600080fd5b81516001600160a01b03811681146200033357600080fd5b9392505050565b634e487b7160e01b600052604160045260246000fd5b600181811c908216806200036557607f821691505b6020821081036200038657634e487b7160e01b600052602260045260246000fd5b50919050565b601f821115620003dc576000816000526020600020601f850160051c81016020861015620003b75750805b601f850160051c820191505b81811015620003d857828155600101620003c3565b5050505b505050565b81516001600160401b03811115620003fd57620003fd6200033a565b62000415816200040e845462000350565b846200038c565b602080601f8311600181146200044d5760008415620004345750858301515b600019600386901b1c1916600185901b178555620003d8565b600085815260208120601f198616915b828110156200047e578886015182559484019460019091019084016200045d565b50858210156200049d5787850151600019600388901b60f8161c191681555b5050505050600190811b01905550565b60006020808352835180602085015260005b81811015620004dd57858101830151858201604001528201620004bf565b506000604082860101526040601f19601f8301168501019250505092915050565b80516020808301519190811015620003865760001960209190910360031b1b16919050565b60805160a05160c05160e0516101005161012051610140516113b16200057e6000396000610b1501526000610ae8015260006109b901526000610991015260006108ec015260006109160152600061094001526113b16000f3fe608060405234801561001057600080fd5b50600436106101585760003560e01c806370a08231116100c3578063a217fddf1161007c578063a217fddf146102df578063a9059cbb146102e7578063d505accf146102fa578063d53913931461030d578063d547741f14610334578063dd62ed3e1461034757600080fd5b806370a082311461025a57806379cc6790146102835780637ecebe001461029657806384b0196e146102a957806391d14854146102c457806395d89b41146102d757600080fd5b80632f2ff15d116101155780632f2ff15d146101f5578063313ce5671461020a5780633644e5151461021957806336568abe1461022157806340c10f191461023457806342966c681461024757600080fd5b806301ffc9a71461015d57806306fdde0314610185578063095ea7b31461019a57806318160ddd146101ad57806323b872dd146101bf578063248a9ca3146101d2575b600080fd5b61017061016b366004611068565b610380565b60405190151581526020015b60405180910390f35b61018d6103b7565b60405161017c91906110df565b6101706101a836600461110e565b610449565b6003545b60405190815260200161017c565b6101706101cd366004611138565b610461565b6101b16101e0366004611174565b60009081526020819052604090206001015490565b61020861020336600461118d565b610485565b005b6040516012815260200161017c565b6101b16104b0565b61020861022f36600461118d565b6104bf565b61020861024236600461110e565b6104f7565b610208610255366004611174565b61052b565b6101b16102683660046111b9565b6001600160a01b031660009081526001602052604090205490565b61020861029136600461110e565b610538565b6101b16102a43660046111b9565b610551565b6102b161056f565b60405161017c97969594939291906111d4565b6101706102d236600461118d565b6105b5565b61018d6105de565b6101b1600081565b6101706102f536600461110e565b6105ed565b61020861030836600461126d565b6105fb565b6101b17f9f2df0fed2c77648de5860a4cc508cd0818c85b8b8a1ab4ceeef8d981c8956a681565b61020861034236600461118d565b61073a565b6101b16103553660046112e0565b6001600160a01b03918216600090815260026020908152604080832093909416825291909152205490565b60006001600160e01b03198216637965db0b60e01b14806103b157506301ffc9a760e01b6001600160e01b03198316145b92915050565b6060600480546103c69061130a565b80601f01602080910402602001604051908101604052809291908181526020018280546103f29061130a565b801561043f5780601f106104145761010080835404028352916020019161043f565b820191906000526020600020905b81548152906001019060200180831161042257829003601f168201915b5050505050905090565b60003361045781858561075f565b5060019392505050565b60003361046f85828561076c565b61047a8585856107e4565b506001949350505050565b6000828152602081905260409020600101546104a081610843565b6104aa838361084d565b50505050565b60006104ba6108df565b905090565b6001600160a01b03811633146104e85760405163334bd91960e11b815260040160405180910390fd5b6104f28282610a0a565b505050565b7f9f2df0fed2c77648de5860a4cc508cd0818c85b8b8a1ab4ceeef8d981c8956a661052181610843565b6104f28383610a75565b6105353382610aab565b50565b61054382338361076c565b61054d8282610aab565b5050565b6001600160a01b0381166000908152600860205260408120546103b1565b600060608060008060006060610583610ae1565b61058b610b0e565b60408051600080825260208201909252600f60f81b9b939a50919850469750309650945092509050565b6000918252602082815260408084206001600160a01b0393909316845291905290205460ff1690565b6060600580546103c69061130a565b6000336104578185856107e4565b834211156106245760405163313c898160e11b8152600481018590526024015b60405180910390fd5b60007f6e71edae12b1b97f4d1f60370fef10105fa2faae0126114a169c64845d6126c98888886106718c6001600160a01b0316600090815260086020526040902080546001810190915590565b6040805160208101969096526001600160a01b0394851690860152929091166060840152608083015260a082015260c0810186905260e00160405160208183030381529060405280519060200120905060006106cc82610b3b565b905060006106dc82878787610b68565b9050896001600160a01b0316816001600160a01b031614610723576040516325c0072360e11b81526001600160a01b0380831660048301528b16602482015260440161061b565b61072e8a8a8a61075f565b50505050505050505050565b60008281526020819052604090206001015461075581610843565b6104aa8383610a0a565b6104f28383836001610b96565b6001600160a01b0383811660009081526002602090815260408083209386168352929052205460001981146104aa57818110156107d557604051637dc7a0d960e11b81526001600160a01b0384166004820152602481018290526044810183905260640161061b565b6104aa84848484036000610b96565b6001600160a01b03831661080e57604051634b637e8f60e11b81526000600482015260240161061b565b6001600160a01b0382166108385760405163ec442f0560e01b81526000600482015260240161061b565b6104f2838383610c6b565b6105358133610d95565b600061085983836105b5565b6108d7576000838152602081815260408083206001600160a01b03861684529091529020805460ff1916600117905561088f3390565b6001600160a01b0316826001600160a01b0316847f2f8788117e7eff1d82e926ec794901d17c78024a50270940304540a733656f0d60405160405180910390a45060016103b1565b5060006103b1565b6000306001600160a01b037f00000000000000000000000000000000000000000000000000000000000000001614801561093857507f000000000000000000000000000000000000000000000000000000000000000046145b1561096257507f000000000000000000000000000000000000000000000000000000000000000090565b6104ba604080517f8b73c3c69bb8fe3d512ecc4cf759cc79239f7b179b0ffacaa9a75d522b39400f60208201527f0000000000000000000000000000000000000000000000000000000000000000918101919091527f000000000000000000000000000000000000000000000000000000000000000060608201524660808201523060a082015260009060c00160405160208183030381529060405280519060200120905090565b6000610a1683836105b5565b156108d7576000838152602081815260408083206001600160a01b0386168085529252808320805460ff1916905551339286917ff6391f5c32d9c69d2a47ea670b442974b53935d1edc7fd64eb21e047a839171b9190a45060016103b1565b6001600160a01b038216610a9f5760405163ec442f0560e01b81526000600482015260240161061b565b61054d60008383610c6b565b6001600160a01b038216610ad557604051634b637e8f60e11b81526000600482015260240161061b565b61054d82600083610c6b565b60606104ba7f00000000000000000000000000000000000000000000000000000000000000006006610dce565b60606104ba7f00000000000000000000000000000000000000000000000000000000000000006007610dce565b60006103b1610b486108df565b8360405161190160f01b8152600281019290925260228201526042902090565b600080600080610b7a88888888610e79565b925092509250610b8a8282610f48565b50909695505050505050565b6001600160a01b038416610bc05760405163e602df0560e01b81526000600482015260240161061b565b6001600160a01b038316610bea57604051634a1406b160e11b81526000600482015260240161061b565b6001600160a01b03808516600090815260026020908152604080832093871683529290522082905580156104aa57826001600160a01b0316846001600160a01b03167f8c5be1e5ebec7d5bd14f71427d1e84f3dd0314c0f7b2291e5b200ac8c7c3b92584604051610c5d91815260200190565b60405180910390a350505050565b6001600160a01b038316610c96578060036000828254610c8b9190611344565b90915550610d089050565b6001600160a01b03831660009081526001602052604090205481811015610ce95760405163391434e360e21b81526001600160a01b0385166004820152602481018290526044810183905260640161061b565b6001600160a01b03841660009081526001602052604090209082900390555b6001600160a01b038216610d2457600380548290039055610d43565b6001600160a01b03821660009081526001602052604090208054820190555b816001600160a01b0316836001600160a01b03167fddf252ad1be2c89b69c2b068fc378daa952ba7f163c4a11628f55a4df523b3ef83604051610d8891815260200190565b60405180910390a3505050565b610d9f82826105b5565b61054d5760405163e2517d3f60e01b81526001600160a01b03821660048201526024810183905260440161061b565b606060ff8314610de857610de183611001565b90506103b1565b818054610df49061130a565b80601f0160208091040260200160405190810160405280929190818152602001828054610e209061130a565b8015610e6d5780601f10610e4257610100808354040283529160200191610e6d565b820191906000526020600020905b815481529060010190602001808311610e5057829003601f168201915b505050505090506103b1565b600080807f7fffffffffffffffffffffffffffffff5d576e7357a4501ddfe92f46681b20a0841115610eb45750600091506003905082610f3e565b604080516000808252602082018084528a905260ff891692820192909252606081018790526080810186905260019060a0016020604051602081039080840390855afa158015610f08573d6000803e3d6000fd5b5050604051601f1901519150506001600160a01b038116610f3457506000925060019150829050610f3e565b9250600091508190505b9450945094915050565b6000826003811115610f5c57610f5c611365565b03610f65575050565b6001826003811115610f7957610f79611365565b03610f975760405163f645eedf60e01b815260040160405180910390fd5b6002826003811115610fab57610fab611365565b03610fcc5760405163fce698f760e01b81526004810182905260240161061b565b6003826003811115610fe057610fe0611365565b0361054d576040516335e2f38360e21b81526004810182905260240161061b565b6060600061100e83611040565b604080516020808252818301909252919250600091906020820181803683375050509182525060208101929092525090565b600060ff8216601f8111156103b157604051632cd44ac360e21b815260040160405180910390fd5b60006020828403121561107a57600080fd5b81356001600160e01b03198116811461109257600080fd5b9392505050565b6000815180845260005b818110156110bf576020818501810151868301820152016110a3565b506000602082860101526020601f19601f83011685010191505092915050565b6020815260006110926020830184611099565b80356001600160a01b038116811461110957600080fd5b919050565b6000806040838503121561112157600080fd5b61112a836110f2565b946020939093013593505050565b60008060006060848603121561114d57600080fd5b611156846110f2565b9250611164602085016110f2565b9150604084013590509250925092565b60006020828403121561118657600080fd5b5035919050565b600080604083850312156111a057600080fd5b823591506111b0602084016110f2565b90509250929050565b6000602082840312156111cb57600080fd5b611092826110f2565b60ff60f81b881681526000602060e060208401526111f560e084018a611099565b8381036040850152611207818a611099565b606085018990526001600160a01b038816608086015260a0850187905284810360c08601528551808252602080880193509091019060005b8181101561125b5783518352928401929184019160010161123f565b50909c9b505050505050505050505050565b600080600080600080600060e0888a03121561128857600080fd5b611291886110f2565b965061129f602089016110f2565b95506040880135945060608801359350608088013560ff811681146112c357600080fd5b9699959850939692959460a0840135945060c09093013592915050565b600080604083850312156112f357600080fd5b6112fc836110f2565b91506111b0602084016110f2565b600181811c9082168061131e57607f821691505b60208210810361133e57634e487b7160e01b600052602260045260246000fd5b50919050565b808201808211156103b157634e487b7160e01b600052601160045260246000fd5b634e487b7160e01b600052602160045260246000fdfea2646970667358221220932cfc174a211be4236bbbbeef2ff07b9a100f8264ab151b9102ff2e2bba3c6864736f6c63430008180033",
  "linkReferences": {},
  "deployedLinkReferences": {}
}