{
  "_format": "hh-sol-artifact-1",
  "contractName": "Property",
  "sourceName": "contracts/Property.sol",
  "abi": [
    {
      "inputs": [],
      "stateMutability": "nonpayable",
      "type": "constructor"
    },
    {
      "inputs": [],
      "name": "AccessControlBadConfirmation",
      "type": "error"
    },
    {
      "inputs": [
        {
          "internalType": "address",
          "name": "account",
          "type": "address"
        },
        {
          "internalType": "bytes32",
          "name": "neededRole",
          "type": "bytes32"
        }
      ],
      "name": "AccessControlUnauthorizedAccount",
      "type": "error"
    },
    {
      "inputs": [
        {
          "internalType": "address",
          "name": "sender",
          "type": "address"
        },
        {
          "internalType": "uint256",
          "name": "balance",
          "type": "uint256"
        },
        {
          "internalType": "uint256",
          "name": "needed",
          "type": "uint256"
        },
        {
          "internalType": "uint256",
          "name": "tokenId",
          "type": "uint256"
        }
      ],
      "name": "ERC1155InsufficientBalance",
      "type": "error"
    },
    {
      "inputs": [
        {
          "internalType": "address",
          "name": "approver",
          "type": "address"
        }
      ],
      "name": "ERC1155InvalidApprover",
      "type": "error"
    },
    {
      "inputs": [
        {
          "internalType": "uint256",
          "name": "idsLength",
          "type": "uint256"
        },
        {
          "internalType": "uint256",
          "name": "valuesLength",
          "type": "uint256"
        }
      ],
      "name": "ERC1155InvalidArrayLength",
      "type": "error"
    },
    {
      "inputs": [
        {
          "internalType": "address",
          "name": "operator",
          "type": "address"
        }
      ],
      "name": "ERC1155InvalidOperator",
      "type": "error"
    },
    {
      "inputs": [
        {
          "internalType": "address",
          "name": "receiver",
          "type": "address"
        }
      ],
      "name": "ERC1155InvalidReceiver",
      "type": "error"
    },
    {
      "inputs": [
        {
          "internalType": "address",
          "name": "sender",
          "type": "address"
        }
      ],
      "name": "ERC1155InvalidSender",
      "type": "error"
    },
    {
      "inputs": [
        {
          "internalType": "address",
          "name": "operator",
          "type": "address"
        },
        {
          "internalType": "address",
          "name": "owner",
          "type": "address"
        }
      ],
      "name": "ERC1155MissingApprovalForAll",
      "type": "error"
    },
    {
      "inputs": [],
      "name": "InvalidInitialization",
      "type": "error"
    },
    {
      "inputs": [],
      "name": "NotInitializing",
      "type": "error"
    },
    {
      "anonymous": false,
      "inputs": [
        {
          "indexed": true,
          "internalType": "address",
          "name": "account",
          "type": "address"
        },
        {
          "indexed": true,
          "internalType": "address",
          "name": "operator",
          "type": "address"
        },
        {
          "indexed": false,
          "internalType": "bool",
          "name": "approved",
          "type": "bool"
        }
      ],
      "name": "ApprovalForAll",
      "type": "event"
    },
    {
      "anonymous": false,
      "inputs": [
        {
          "indexed": false,
          "internalType": "uint64",
          "name": "version",
          "type": "uint64"
        }
      ],
      "name": "Initialized",
      "type": "event"
    },
    {
      "anonymous": false,
      "inputs": [
        {
          "indexed": true,
          "internalType": "bytes32",
          "name": "role",
          "type": "bytes32"
        },
        {
          "indexed": true,
          "internalType": "bytes32",
          "name": "previousAdminRole",
          "type": "bytes32"
        },
        {
          "indexed": true,
          "internalType": "bytes32",
          "name": "newAdminRole",
          "type": "bytes32"
        }
      ],
      "name": "RoleAdminChanged",
      "type": "event"
    },
    {
      "anonymous": false,
      "inputs": [
        {
          "indexed": true,
          "internalType": "bytes32",
          "name": "role",
          "type": "bytes32"
        },
        {
          "indexed": true,
          "internalType": "address",
          "name": "account",
          "type": "address"
        },
        {
          "indexed": true,
          "internalType": "address",
          "name": "sender",
          "type": "address"
        }
      ],
      "name": "RoleGranted",
      "type": "event"
    },
    {
      "anonymous": false,
      "inputs": [
        {
          "indexed": true,
          "internalType": "bytes32",
          "name": "role",
          "type": "bytes32"
        },
        {
          "indexed": true,
          "internalType": "address",
          "name": "account",
          "type": "address"
        },
        {
          "indexed": true,
          "internalType": "address",
          "name": "sender",
          "type": "address"
        }
      ],
      "name": "RoleRevoked",
      "type": "event"
    },
    {
      "anonymous": false,
      "inputs": [
        {
          "indexed": true,
          "internalType": "address",
          "name": "operator",
          "type": "address"
        },
        {
          "indexed": true,
          "internalType": "address",
          "name": "from",
          "type": "address"
        },
        {
          "indexed": true,
          "internalType": "address",
          "name": "to",
          "type": "address"
        },
        {
          "indexed": false,
          "internalType": "uint256[]",
          "name": "ids",
          "type": "uint256[]"
        },
        {
          "indexed": false,
          "internalType": "uint256[]",
          "name": "values",
          "type": "uint256[]"
        }
      ],
      "name": "TransferBatch",
      "type": "event"
    },
    {
      "anonymous": false,
      "inputs": [
        {
          "indexed": true,
          "internalType": "address",
          "name": "operator",
          "type": "address"
        },
        {
          "indexed": true,
          "internalType": "address",
          "name": "from",
          "type": "address"
        },
        {
          "indexed": true,
          "internalType": "address",
          "name": "to",
          "type": "address"
        },
        {
          "indexed": false,
          "internalType": "uint256",
          "name": "id",
          "type": "uint256"
        },
        {
          "indexed": false,
          "internalType": "uint256",
          "name": "value",
          "type": "uint256"
        }
      ],
      "name": "TransferSingle",
      "type": "event"
    },
    {
      "anonymous": false,
      "inputs": [
        {
          "indexed": false,
          "internalType": "string",
          "name": "value",
          "type": "string"
        },
        {
          "indexed": true,
          "internalType": "uint256",
          "name": "id",
          "type": "uint256"
        }
      ],
      "name": "URI",
      "type": "event"
    },
    {
      "inputs": [],
      "name": "DEFAULT_ADMIN_ROLE",
      "outputs": [
        {
          "internalType": "bytes32",
          "name": "",
          "type": "bytes32"
        }
      ],
      "stateMutability": "view",
      "type": "function"
    },
    {
      "inputs": [],
      "name": "MINTER_ROLE",
      "outputs": [
        {
          "internalType": "bytes32",
          "name": "",
          "type": "bytes32"
        }
      ],
      "stateMutability": "view",
      "type": "function"
    },
    {
      "inputs": [],
      "name": "URI_SETTER_ROLE",
      "outputs": [
        {
          "internalType": "bytes32",
          "name": "",
          "type": "bytes32"
        }
      ],
      "stateMutability": "view",
      "type": "function"
    },
    {
      "inputs": [
        {
          "internalType": "address",
          "name": "account",
          "type": "address"
        },
        {
          "internalType": "uint256",
          "name": "id",
          "type": "uint256"
        }
      ],
      "name": "balanceOf",
      "outputs": [
        {
          "internalType": "uint256",
          "name": "",
          "type": "uint256"
        }
      ],
      "stateMutability": "view",
      "type": "function"
    },
    {
      "inputs": [
        {
          "internalType": "address[]",
          "name": "accounts",
          "type": "address[]"
        },
        {
          "internalType": "uint256[]",
          "name": "ids",
          "type": "uint256[]"
        }
      ],
      "name": "balanceOfBatch",
      "outputs": [
        {
          "internalType": "uint256[]",
          "name": "",
          "type": "uint256[]"
        }
      ],
      "stateMutability": "view",
      "type": "function"
    },
    {
      "inputs": [
        {
          "internalType": "address",
          "name": "account",
          "type": "address"
        },
        {
          "internalType": "uint256",
          "name": "id",
          "type": "uint256"
        },
        {
          "internalType": "uint256",
          "name": "value",
          "type": "uint256"
        }
      ],
      "name": "burn",
      "outputs": [],
      "stateMutability": "nonpayable",
      "type": "function"
    },
    {
      "inputs": [
        {
          "internalType": "address",
          "name": "account",
          "type": "address"
        },
        {
          "internalType": "uint256[]",
          "name": "ids",
          "type": "uint256[]"
        },
        {
          "internalType": "uint256[]",
          "name": "values",
          "type": "uint256[]"
        }
      ],
      "name": "burnBatch",
      "outputs": [],
      "stateMutability": "nonpayable",
      "type": "function"
    },
    {
      "inputs": [
        {
          "internalType": "uint256",
          "name": "id",
          "type": "uint256"
        }
      ],
      "name": "exists",
      "outputs": [
        {
          "internalType": "bool",
          "name": "",
          "type": "bool"
        }
      ],
      "stateMutability": "view",
      "type": "function"
    },
    {
      "inputs": [
        {
          "internalType": "bytes32",
          "name": "role",
          "type": "bytes32"
        }
      ],
      "name": "getRoleAdmin",
      "outputs": [
        {
          "internalType": "bytes32",
          "name": "",
          "type": "bytes32"
        }
      ],
      "stateMutability": "view",
      "type": "function"
    },
    {
      "inputs": [
        {
          "internalType": "bytes32",
          "name": "role",
          "type": "bytes32"
        },
        {
          "internalType": "address",
          "name": "account",
          "type": "address"
        }
      ],
      "name": "grantRole",
      "outputs": [],
      "stateMutability": "nonpayable",
      "type": "function"
    },
    {
      "inputs": [
        {
          "internalType": "bytes32",
          "name": "role",
          "type": "bytes32"
        },
        {
          "internalType": "address",
          "name": "account",
          "type": "address"
        }
      ],
      "name": "hasRole",
      "outputs": [
        {
          "internalType": "bool",
          "name": "",
          "type": "bool"
        }
      ],
      "stateMutability": "view",
      "type": "function"
    },
    {
      "inputs": [
        {
          "internalType": "address",
          "name": "defaultAdmin",
          "type": "address"
        },
        {
          "internalType": "address",
          "name": "minter",
          "type": "address"
        }
      ],
      "name": "initialize",
      "outputs": [],
      "stateMutability": "nonpayable",
      "type": "function"
    },
    {
      "inputs": [
        {
          "internalType": "address",
          "name": "account",
          "type": "address"
        },
        {
          "internalType": "address",
          "name": "operator",
          "type": "address"
        }
      ],
      "name": "isApprovedForAll",
      "outputs": [
        {
          "internalType": "bool",
          "name": "",
          "type": "bool"
        }
      ],
      "stateMutability": "view",
      "type": "function"
    },
    {
      "inputs": [
        {
          "internalType": "address",
          "name": "account",
          "type": "address"
        },
        {
          "internalType": "uint256",
          "name": "id",
          "type": "uint256"
        },
        {
          "internalType": "uint256",
          "name": "amount",
          "type": "uint256"
        },
        {
          "internalType": "bytes",
          "name": "data",
          "type": "bytes"
        }
      ],
      "name": "mint",
      "outputs": [],
      "stateMutability": "nonpayable",
      "type": "function"
    },
    {
      "inputs": [
        {
          "internalType": "address",
          "name": "to",
          "type": "address"
        },
        {
          "internalType": "uint256[]",
          "name": "ids",
          "type": "uint256[]"
        },
        {
          "internalType": "uint256[]",
          "name": "amounts",
          "type": "uint256[]"
        },
        {
          "internalType": "bytes",
          "name": "data",
          "type": "bytes"
        }
      ],
      "name": "mintBatch",
      "outputs": [],
      "stateMutability": "nonpayable",
      "type": "function"
    },
    {
      "inputs": [
        {
          "internalType": "bytes32",
          "name": "role",
          "type": "bytes32"
        },
        {
          "internalType": "address",
          "name": "callerConfirmation",
          "type": "address"
        }
      ],
      "name": "renounceRole",
      "outputs": [],
      "stateMutability": "nonpayable",
      "type": "function"
    },
    {
      "inputs": [
        {
          "internalType": "bytes32",
          "name": "role",
          "type": "bytes32"
        },
        {
          "internalType": "address",
          "name": "account",
          "type": "address"
        }
      ],
      "name": "revokeRole",
      "outputs": [],
      "stateMutability": "nonpayable",
      "type": "function"
    },
    {
      "inputs": [
        {
          "internalType": "address",
          "name": "from",
          "type": "address"
        },
        {
          "internalType": "address",
          "name": "to",
          "type": "address"
        },
        {
          "internalType": "uint256[]",
          "name": "ids",
          "type": "uint256[]"
        },
        {
          "internalType": "uint256[]",
          "name": "values",
          "type": "uint256[]"
        },
        {
          "internalType": "bytes",
          "name": "data",
          "type": "bytes"
        }
      ],
      "name": "safeBatchTransferFrom",
      "outputs": [],
      "stateMutability": "nonpayable",
      "type": "function"
    },
    {
      "inputs": [
        {
          "internalType": "address",
          "name": "from",
          "type": "address"
        },
        {
          "internalType": "address",
          "name": "to",
          "type": "address"
        },
        {
          "internalType": "uint256",
          "name": "id",
          "type": "uint256"
        },
        {
          "internalType": "uint256",
          "name": "value",
          "type": "uint256"
        },
        {
          "internalType": "bytes",
          "name": "data",
          "type": "bytes"
        }
      ],
      "name": "safeTransferFrom",
      "outputs": [],
      "stateMutability": "nonpayable",
      "type": "function"
    },
    {
      "inputs": [
        {
          "internalType": "address",
          "name": "operator",
          "type": "address"
        },
        {
          "internalType": "bool",
          "name": "approved",
          "type": "bool"
        }
      ],
      "name": "setApprovalForAll",
      "outputs": [],
      "stateMutability": "nonpayable",
      "type": "function"
    },
    {
      "inputs": [
        {
          "internalType": "string",
          "name": "newuri",
          "type": "string"
        }
      ],
      "name": "setURI",
      "outputs": [],
      "stateMutability": "nonpayable",
      "type": "function"
    },
    {
      "inputs": [
        {
          "internalType": "bytes4",
          "name": "interfaceId",
          "type": "bytes4"
        }
      ],
      "name": "supportsInterface",
      "outputs": [
        {
          "internalType": "bool",
          "name": "",
          "type": "bool"
        }
      ],
      "stateMutability": "view",
      "type": "function"
    },
    {
      "inputs": [],
      "name": "totalSupply",
      "outputs": [
        {
          "internalType": "uint256",
          "name": "",
          "type": "uint256"
        }
      ],
      "stateMutability": "view",
      "type": "function"
    },
    {
      "inputs": [
        {
          "internalType": "uint256",
          "name": "id",
          "type": "uint256"
        }
      ],
      "name": "totalSupply",
      "outputs": [
        {
          "internalType": "uint256",
          "name": "",
          "type": "uint256"
        }
      ],
      "stateMutability": "view",
      "type": "function"
    },
    {
      "inputs": [
        {
          "internalType": "uint256",
          "name": "",
          "type": "uint256"
        }
      ],
      "name": "uri",
      "outputs": [
        {
          "internalType": "string",
          "name": "",
          "type": "string"
        }
      ],
      "stateMutability": "view",
      "type": "function"
    }
  ],
  "bytecode": "0x608060405234801561001057600080fd5b5061001961001e565b6100d0565b7ff0c57e16840df040f15088dc2f81fe391c3923bec73e23a9662efc9c229c6a00805468010000000000000000900460ff161561006e5760405163f92ee8a960e01b815260040160405180910390fd5b80546001600160401b03908116146100cd5780546001600160401b0319166001600160401b0390811782556040519081527fc7f505b2f371ae2175ee4913f4499e1f2633a7b5936321eed1cdaeb6115181d29060200160405180910390a15b50565b611f0e806100df6000396000f3fe608060405234801561001057600080fd5b50600436106101725760003560e01c80634f558e79116100de578063a22cb46511610097578063d547741f11610071578063d547741f146103be578063e985e9c5146103d1578063f242432a146103e4578063f5298aca146103f757600080fd5b8063a22cb46514610357578063bd85b0391461036a578063d5391393146103a957600080fd5b80634f558e79146102ae5780636b20c454146102ef578063731133e9146103025780637f3457101461031557806391d148541461033c578063a217fddf1461034f57600080fd5b8063248a9ca311610130578063248a9ca31461022f5780632eb2c2d6146102425780632f2ff15d1461025557806336568abe14610268578063485cc9551461027b5780634e1273f41461028e57600080fd5b8062fdd58e1461017757806301ffc9a71461019d57806302fe5305146101c05780630e89341c146101d557806318160ddd146101f55780631f7fdffa1461021c575b600080fd5b61018a61018536600461155e565b61040a565b6040519081526020015b60405180910390f35b6101b06101ab36600461159e565b610441565b6040519015158152602001610194565b6101d36101ce36600461165f565b61044c565b005b6101e86101e33660046116af565b610483565b604051610194919061170e565b7f4a593662ee04d27b6a00ebb31be7fe0c102c2ade82a7c5d764f2df05dc4e28015461018a565b6101d361022a3660046117d3565b610548565b61018a61023d3660046116af565b610573565b6101d361025036600461186b565b610595565b6101d3610263366004611914565b610601565b6101d3610276366004611914565b610623565b6101d3610289366004611940565b61065b565b6102a161029c36600461196a565b6107b6565b6040516101949190611a65565b6101b06102bc3660046116af565b60009081527f4a593662ee04d27b6a00ebb31be7fe0c102c2ade82a7c5d764f2df05dc4e28006020526040902054151590565b6101d36102fd366004611a78565b610882565b6101d3610310366004611aeb565b6108e1565b61018a7f7804d923f43a17d325d77e781528e0793b2edd9890ab45fc64efd7b4b427744c81565b6101b061034a366004611914565b610905565b61018a600081565b6101d3610365366004611b3f565b61093d565b61018a6103783660046116af565b60009081527f4a593662ee04d27b6a00ebb31be7fe0c102c2ade82a7c5d764f2df05dc4e2800602052604090205490565b61018a600080516020611e9983398151915281565b6101d36103cc366004611914565b610948565b6101b06103df366004611940565b610964565b6101d36103f2366004611b7b565b6109b1565b6101d3610405366004611bdf565b610a10565b6000818152600080516020611e79833981519152602090815260408083206001600160a01b03861684529091529020545b92915050565b600061043b82610a46565b7f7804d923f43a17d325d77e781528e0793b2edd9890ab45fc64efd7b4b427744c61047681610a6b565b61047f82610a78565b5050565b7f88be536d5240c274a3b1d3a1be54482fd9caa294f08c62a7cde569f49a3c45028054606091600080516020611e79833981519152916104c290611c12565b80601f01602080910402602001604051908101604052809291908181526020018280546104ee90611c12565b801561053b5780601f106105105761010080835404028352916020019161053b565b820191906000526020600020905b81548152906001019060200180831161051e57829003601f168201915b5050505050915050919050565b600080516020611e9983398151915261056081610a6b565b61056c85858585610ab2565b5050505050565b6000908152600080516020611eb9833981519152602052604090206001015490565b336001600160a01b03861681148015906105b657506105b48682610964565b155b156105ec5760405163711bec9160e11b81526001600160a01b038083166004830152871660248201526044015b60405180910390fd5b6105f98686868686610aea565b505050505050565b61060a82610573565b61061381610a6b565b61061d8383610b4a565b50505050565b6001600160a01b038116331461064c5760405163334bd91960e11b815260040160405180910390fd5b6106568282610bef565b505050565b7ff0c57e16840df040f15088dc2f81fe391c3923bec73e23a9662efc9c229c6a008054600160401b810460ff1615906001600160401b03166000811580156106a05750825b90506000826001600160401b031660011480156106bc5750303b155b9050811580156106ca575080155b156106e85760405163f92ee8a960e01b815260040160405180910390fd5b845467ffffffffffffffff19166001178555831561071257845460ff60401b1916600160401b1785555b61072a60405180602001604052806000815250610c6b565b610732610c7c565b61073a610c7c565b610742610c7c565b61074d600088610b4a565b50610766600080516020611e9983398151915287610b4a565b5083156107ad57845460ff60401b19168555604051600181527fc7f505b2f371ae2175ee4913f4499e1f2633a7b5936321eed1cdaeb6115181d29060200160405180910390a15b50505050505050565b606081518351146107e75781518351604051635b05999160e01b8152600481019290925260248201526044016105e3565b600083516001600160401b03811115610802576108026115c2565b60405190808252806020026020018201604052801561082b578160200160208202803683370190505b50905060005b845181101561087a576020808202860101516108559060208084028701015161040a565b82828151811061086757610867611c4c565b6020908102919091010152600101610831565b509392505050565b6001600160a01b03831633148015906108a257506108a08333610964565b155b156108d657335b60405163711bec9160e11b81526001600160a01b03918216600482015290841660248201526044016105e3565b610656838383610c86565b600080516020611e998339815191526108f981610a6b565b61056c85858585610ccc565b6000918252600080516020611eb9833981519152602090815260408084206001600160a01b0393909316845291905290205460ff1690565b61047f338383610d29565b61095182610573565b61095a81610a6b565b61061d8383610bef565b6001600160a01b0391821660009081527f88be536d5240c274a3b1d3a1be54482fd9caa294f08c62a7cde569f49a3c45016020908152604080832093909416825291909152205460ff1690565b336001600160a01b03861681148015906109d257506109d08682610964565b155b15610a035760405163711bec9160e11b81526001600160a01b038083166004830152871660248201526044016105e3565b6105f98686868686610dd1565b6001600160a01b0383163314801590610a305750610a2e8333610964565b155b15610a3b57336108a9565b610656838383610e56565b60006001600160e01b03198216637965db0b60e01b148061043b575061043b82610ebe565b610a758133610f0e565b50565b600080516020611e798339815191527f88be536d5240c274a3b1d3a1be54482fd9caa294f08c62a7cde569f49a3c45026106568382611caa565b6001600160a01b038416610adc57604051632bfa23e760e11b8152600060048201526024016105e3565b61061d600085858585610f47565b6001600160a01b038416610b1457604051632bfa23e760e11b8152600060048201526024016105e3565b6001600160a01b038516610b3d57604051626a0d4560e21b8152600060048201526024016105e3565b61056c8585858585610f47565b6000600080516020611eb9833981519152610b658484610905565b610be5576000848152602082815260408083206001600160a01b03871684529091529020805460ff19166001179055610b9b3390565b6001600160a01b0316836001600160a01b0316857f2f8788117e7eff1d82e926ec794901d17c78024a50270940304540a733656f0d60405160405180910390a4600191505061043b565b600091505061043b565b6000600080516020611eb9833981519152610c0a8484610905565b15610be5576000848152602082815260408083206001600160a01b0387168085529252808320805460ff1916905551339287917ff6391f5c32d9c69d2a47ea670b442974b53935d1edc7fd64eb21e047a839171b9190a4600191505061043b565b610c73610f9a565b610a7581610fe3565b610c84610f9a565b565b6001600160a01b038316610caf57604051626a0d4560e21b8152600060048201526024016105e3565b610656836000848460405180602001604052806000815250610f47565b6001600160a01b038416610cf657604051632bfa23e760e11b8152600060048201526024016105e3565b604080516001808252602082018690528183019081526060820185905260808201909252906105f9600087848487610f47565b600080516020611e798339815191526001600160a01b038316610d615760405162ced3e160e81b8152600060048201526024016105e3565b6001600160a01b038481166000818152600184016020908152604080832094881680845294825291829020805460ff191687151590811790915591519182527f17307eab39ab6107e8899845ad3d59bd9653f200f220920489ca2b5937696c31910160405180910390a350505050565b6001600160a01b038416610dfb57604051632bfa23e760e11b8152600060048201526024016105e3565b6001600160a01b038516610e2457604051626a0d4560e21b8152600060048201526024016105e3565b604080516001808252602082018690528183019081526060820185905260808201909252906107ad8787848487610f47565b6001600160a01b038316610e7f57604051626a0d4560e21b8152600060048201526024016105e3565b604080516001808252602082018590528183019081526060820184905260a0820190925260006080820181815291929161056c91879185908590610f47565b60006001600160e01b03198216636cdb3d1360e11b1480610eef57506001600160e01b031982166303a24d0760e21b145b8061043b57506301ffc9a760e01b6001600160e01b031983161461043b565b610f188282610905565b61047f5760405163e2517d3f60e01b81526001600160a01b0382166004820152602481018390526044016105e3565b610f5385858585610ff4565b6001600160a01b0384161561056c5782513390600103610f8c5760208481015190840151610f85838989858589611000565b50506105f9565b6105f9818787878787611124565b7ff0c57e16840df040f15088dc2f81fe391c3923bec73e23a9662efc9c229c6a0054600160401b900460ff16610c8457604051631afcd79f60e31b815260040160405180910390fd5b610feb610f9a565b610a7581610a78565b61061d8484848461120d565b6001600160a01b0384163b156105f95760405163f23a6e6160e01b81526001600160a01b0385169063f23a6e61906110449089908990889088908890600401611d69565b6020604051808303816000875af192505050801561107f575060408051601f3d908101601f1916820190925261107c91810190611dae565b60015b6110e8573d8080156110ad576040519150601f19603f3d011682016040523d82523d6000602084013e6110b2565b606091505b5080516000036110e057604051632bfa23e760e11b81526001600160a01b03861660048201526024016105e3565b805181602001fd5b6001600160e01b0319811663f23a6e6160e01b146107ad57604051632bfa23e760e11b81526001600160a01b03861660048201526024016105e3565b6001600160a01b0384163b156105f95760405163bc197c8160e01b81526001600160a01b0385169063bc197c81906111689089908990889088908890600401611dcb565b6020604051808303816000875af19250505080156111a3575060408051601f3d908101601f191682019092526111a091810190611dae565b60015b6111d1573d8080156110ad576040519150601f19603f3d011682016040523d82523d6000602084013e6110b2565b6001600160e01b0319811663bc197c8160e01b146107ad57604051632bfa23e760e11b81526001600160a01b03861660048201526024016105e3565b7f4a593662ee04d27b6a00ebb31be7fe0c102c2ade82a7c5d764f2df05dc4e280061123a8585858561131d565b6001600160a01b0385166112bb576000805b845181101561129f57602081810285810182015190870182015160009081529185905260408220805491928392611284908490611e29565b9091555061129490508184611e29565b92505060010161124c565b50808260010160008282546112b49190611e29565b9091555050505b6001600160a01b03841661056c576000805b845181101561130957602081810285810182015190870182015160009081529185905260409091208054829003905591909101906001016112cd565b506001820180549190910390555050505050565b80518251600080516020611e79833981519152911461135c5782518251604051635b05999160e01b8152600481019290925260248201526044016105e3565b3360005b8451811015611462576020818102868101820151908601909101516001600160a01b03891615611413576000828152602086815260408083206001600160a01b038d168452909152902054818110156113ec576040516303dee4c560e01b81526001600160a01b038b1660048201526024810182905260448101839052606481018490526084016105e3565b6000838152602087815260408083206001600160a01b038e16845290915290209082900390555b6001600160a01b03881615611458576000828152602086815260408083206001600160a01b038c16845290915281208054839290611452908490611e29565b90915550505b5050600101611360565b5083516001036114e35760208401516000906020850151909150866001600160a01b0316886001600160a01b0316846001600160a01b03167fc3d58168c5ae7397731d063d5bbf3d657854427343f4c083240f7aacaa2d0f6285856040516114d4929190918252602082015260400190565b60405180910390a450506105f9565b846001600160a01b0316866001600160a01b0316826001600160a01b03167f4a39dc06d4c0dbc64b70af90fd698a233a518aa5d07e595d983b8c0526c8f7fb8787604051611532929190611e4a565b60405180910390a4505050505050565b80356001600160a01b038116811461155957600080fd5b919050565b6000806040838503121561157157600080fd5b61157a83611542565b946020939093013593505050565b6001600160e01b031981168114610a7557600080fd5b6000602082840312156115b057600080fd5b81356115bb81611588565b9392505050565b634e487b7160e01b600052604160045260246000fd5b604051601f8201601f191681016001600160401b0381118282101715611600576116006115c2565b604052919050565b60006001600160401b03831115611621576116216115c2565b611634601f8401601f19166020016115d8565b905082815283838301111561164857600080fd5b828260208301376000602084830101529392505050565b60006020828403121561167157600080fd5b81356001600160401b0381111561168757600080fd5b8201601f8101841361169857600080fd5b6116a784823560208401611608565b949350505050565b6000602082840312156116c157600080fd5b5035919050565b6000815180845260005b818110156116ee576020818501810151868301820152016116d2565b506000602082860101526020601f19601f83011685010191505092915050565b6020815260006115bb60208301846116c8565b60006001600160401b0382111561173a5761173a6115c2565b5060051b60200190565b600082601f83011261175557600080fd5b8135602061176a61176583611721565b6115d8565b8083825260208201915060208460051b87010193508684111561178c57600080fd5b602086015b848110156117a85780358352918301918301611791565b509695505050505050565b600082601f8301126117c457600080fd5b6115bb83833560208501611608565b600080600080608085870312156117e957600080fd5b6117f285611542565b935060208501356001600160401b038082111561180e57600080fd5b61181a88838901611744565b9450604087013591508082111561183057600080fd5b61183c88838901611744565b9350606087013591508082111561185257600080fd5b5061185f878288016117b3565b91505092959194509250565b600080600080600060a0868803121561188357600080fd5b61188c86611542565b945061189a60208701611542565b935060408601356001600160401b03808211156118b657600080fd5b6118c289838a01611744565b945060608801359150808211156118d857600080fd5b6118e489838a01611744565b935060808801359150808211156118fa57600080fd5b50611907888289016117b3565b9150509295509295909350565b6000806040838503121561192757600080fd5b8235915061193760208401611542565b90509250929050565b6000806040838503121561195357600080fd5b61195c83611542565b915061193760208401611542565b6000806040838503121561197d57600080fd5b82356001600160401b038082111561199457600080fd5b818501915085601f8301126119a857600080fd5b813560206119b861176583611721565b82815260059290921b840181019181810190898411156119d757600080fd5b948201945b838610156119fc576119ed86611542565b825294820194908201906119dc565b96505086013592505080821115611a1257600080fd5b50611a1f85828601611744565b9150509250929050565b60008151808452602080850194506020840160005b83811015611a5a57815187529582019590820190600101611a3e565b509495945050505050565b6020815260006115bb6020830184611a29565b600080600060608486031215611a8d57600080fd5b611a9684611542565b925060208401356001600160401b0380821115611ab257600080fd5b611abe87838801611744565b93506040860135915080821115611ad457600080fd5b50611ae186828701611744565b9150509250925092565b60008060008060808587031215611b0157600080fd5b611b0a85611542565b9350602085013592506040850135915060608501356001600160401b03811115611b3357600080fd5b61185f878288016117b3565b60008060408385031215611b5257600080fd5b611b5b83611542565b915060208301358015158114611b7057600080fd5b809150509250929050565b600080600080600060a08688031215611b9357600080fd5b611b9c86611542565b9450611baa60208701611542565b9350604086013592506060860135915060808601356001600160401b03811115611bd357600080fd5b611907888289016117b3565b600080600060608486031215611bf457600080fd5b611bfd84611542565b95602085013595506040909401359392505050565b600181811c90821680611c2657607f821691505b602082108103611c4657634e487b7160e01b600052602260045260246000fd5b50919050565b634e487b7160e01b600052603260045260246000fd5b601f821115610656576000816000526020600020601f850160051c81016020861015611c8b5750805b601f850160051c820191505b818110156105f957828155600101611c97565b81516001600160401b03811115611cc357611cc36115c2565b611cd781611cd18454611c12565b84611c62565b602080601f831160018114611d0c5760008415611cf45750858301515b600019600386901b1c1916600185901b1785556105f9565b600085815260208120601f198616915b82811015611d3b57888601518255948401946001909101908401611d1c565b5085821015611d595787850151600019600388901b60f8161c191681555b5050505050600190811b01905550565b6001600160a01b03868116825285166020820152604081018490526060810183905260a060808201819052600090611da3908301846116c8565b979650505050505050565b600060208284031215611dc057600080fd5b81516115bb81611588565b6001600160a01b0386811682528516602082015260a060408201819052600090611df790830186611a29565b8281036060840152611e098186611a29565b90508281036080840152611e1d81856116c8565b98975050505050505050565b8082018082111561043b57634e487b7160e01b600052601160045260246000fd5b604081526000611e5d6040830185611a29565b8281036020840152611e6f8185611a29565b9594505050505056fe88be536d5240c274a3b1d3a1be54482fd9caa294f08c62a7cde569f49a3c45009f2df0fed2c77648de5860a4cc508cd0818c85b8b8a1ab4ceeef8d981c8956a602dd7bc7dec4dceedda775e58dd541e08a116c6c53815c0bd028192f7b626800a264697066735822122033d9974ec57c031aeb6bbe3ba3c4f331e53bd242971790abb02d2eb8976ca20f64736f6c63430008180033",
  "linkReferences": {},
  "deployedLinkReferences": {}
}