{
  "_format": "hh-sol-artifact-1",
  "contractName": "PropertyVault",
  "sourceName": "contracts/PropertyVault.sol",
  "abi": [
    {
      "inputs": [
        {
          "internalType": "address",
          "name": "_addProperty",
          "type": "address"
        },
        {
          "internalType": "address",
          "name": "_property",
          "type": "address"
        },
        {
          "internalType": "address",
          "name": "_propertyToken",
          "type": "address"
        },
        {
          "internalType": "address",
          "name": "_paymentToken",
          "type": "address"
        }
      ],
      "stateMutability": "nonpayable",
      "type": "constructor"
    },
    {
      "inputs": [],
      "name": "PropertyVault__NoInvestment",
      "type": "error"
    },
    {
      "inputs": [],
      "name": "PropertyVault__NotEnoughShares",
      "type": "error"
    },
    {
      "inputs": [],
      "name": "PropertyVault__NotEnoughTimePassed",
      "type": "error"
    },
    {
      "inputs": [],
      "name": "PropertyVault__PropertyNotInVault",
      "type": "error"
    },
    {
      "inputs": [],
      "name": "PropertyVault__PropertyNotListed",
      "type": "error"
    },
    {
      "inputs": [
        {
          "internalType": "address",
          "name": "token",
          "type": "address"
        }
      ],
      "name": "SafeERC20FailedOperation",
      "type": "error"
    },
    {
      "anonymous": false,
      "inputs": [
        {
          "indexed": true,
          "internalType": "uint256",
          "name": "tokenId",
          "type": "uint256"
        },
        {
          "indexed": false,
          "internalType": "uint256",
          "name": "price",
          "type": "uint256"
        }
      ],
      "name": "SetSharePrice",
      "type": "event"
    },
    {
      "anonymous": false,
      "inputs": [
        {
          "indexed": true,
          "internalType": "uint256",
          "name": "tokenId",
          "type": "uint256"
        },
        {
          "indexed": false,
          "internalType": "address",
          "name": "buyer",
          "type": "address"
        },
        {
          "indexed": false,
          "internalType": "uint256",
          "name": "amount",
          "type": "uint256"
        }
      ],
      "name": "SharesPurchased",
      "type": "event"
    },
    {
      "anonymous": false,
      "inputs": [
        {
          "indexed": true,
          "internalType": "uint256",
          "name": "tokenId",
          "type": "uint256"
        },
        {
          "indexed": false,
          "internalType": "address",
          "name": "seller",
          "type": "address"
        },
        {
          "indexed": false,
          "internalType": "uint256",
          "name": "amount",
          "type": "uint256"
        }
      ],
      "name": "SharesSold",
      "type": "event"
    },
    {
      "anonymous": false,
      "inputs": [
        {
          "indexed": true,
          "internalType": "uint256",
          "name": "tokenId",
          "type": "uint256"
        },
        {
          "indexed": false,
          "internalType": "address",
          "name": "investor",
          "type": "address"
        },
        {
          "indexed": false,
          "internalType": "uint256",
          "name": "amount",
          "type": "uint256"
        }
      ],
      "name": "Withdrawal",
      "type": "event"
    },
    {
      "inputs": [],
      "name": "MIN_INVESTMENT_TIME",
      "outputs": [
        {
          "internalType": "uint256",
          "name": "",
          "type": "uint256"
        }
      ],
      "stateMutability": "view",
      "type": "function"
    },
    {
      "inputs": [],
      "name": "NFT_AMOUNT",
      "outputs": [
        {
          "internalType": "uint256",
          "name": "",
          "type": "uint256"
        }
      ],
      "stateMutability": "view",
      "type": "function"
    },
    {
      "inputs": [
        {
          "internalType": "uint256",
          "name": "_tokenId",
          "type": "uint256"
        },
        {
          "internalType": "uint256",
          "name": "_pricePerShare",
          "type": "uint256"
        }
      ],
      "name": "addPropertyToVault",
      "outputs": [],
      "stateMutability": "nonpayable",
      "type": "function"
    },
    {
      "inputs": [
        {
          "internalType": "uint256",
          "name": "_amount",
          "type": "uint256"
        },
        {
          "internalType": "uint256",
          "name": "_tokenId",
          "type": "uint256"
        }
      ],
      "name": "fractionalizeNFT",
      "outputs": [],
      "stateMutability": "nonpayable",
      "type": "function"
    },
    {
      "inputs": [
        {
          "internalType": "uint256",
          "name": "_tokenId",
          "type": "uint256"
        }
      ],
      "name": "getAvailableShares",
      "outputs": [
        {
          "internalType": "uint256",
          "name": "",
          "type": "uint256"
        }
      ],
      "stateMutability": "view",
      "type": "function"
    },
    {
      "inputs": [
        {
          "internalType": "uint256",
          "name": "_tokenId",
          "type": "uint256"
        },
        {
          "internalType": "address",
          "name": "_investor",
          "type": "address"
        }
      ],
      "name": "getInvestorShares",
      "outputs": [
        {
          "internalType": "uint256",
          "name": "",
          "type": "uint256"
        }
      ],
      "stateMutability": "view",
      "type": "function"
    },
    {
      "inputs": [],
      "name": "i_addProperty",
      "outputs": [
        {
          "internalType": "contract AddProperty",
          "name": "",
          "type": "address"
        }
      ],
      "stateMutability": "view",
      "type": "function"
    },
    {
      "inputs": [],
      "name": "i_property",
      "outputs": [
        {
          "internalType": "contract Property",
          "name": "",
          "type": "address"
        }
      ],
      "stateMutability": "view",
      "type": "function"
    },
    {
      "inputs": [
        {
          "internalType": "uint256",
          "name": "",
          "type": "uint256"
        },
        {
          "internalType": "address",
          "name": "",
          "type": "address"
        }
      ],
      "name": "investors",
      "outputs": [
        {
          "internalType": "uint256",
          "name": "balance",
          "type": "uint256"
        },
        {
          "internalType": "uint256",
          "name": "shares",
          "type": "uint256"
        }
      ],
      "stateMutability": "view",
      "type": "function"
    },
    {
      "inputs": [
        {
          "internalType": "uint256",
          "name": "",
          "type": "uint256"
        }
      ],
      "name": "isPropertyInVault",
      "outputs": [
        {
          "internalType": "bool",
          "name": "",
          "type": "bool"
        }
      ],
      "stateMutability": "view",
      "type": "function"
    },
    {
      "inputs": [
        {
          "internalType": "uint256",
          "name": "",
          "type": "uint256"
        },
        {
          "internalType": "address",
          "name": "",
          "type": "address"
        }
      ],
      "name": "lastPurchaseTime",
      "outputs": [
        {
          "internalType": "uint256",
          "name": "",
          "type": "uint256"
        }
      ],
      "stateMutability": "view",
      "type": "function"
    },
    {
      "inputs": [
        {
          "internalType": "address",
          "name": "",
          "type": "address"
        },
        {
          "internalType": "address",
          "name": "",
          "type": "address"
        },
        {
          "internalType": "uint256[]",
          "name": "",
          "type": "uint256[]"
        },
        {
          "internalType": "uint256[]",
          "name": "",
          "type": "uint256[]"
        },
        {
          "internalType": "bytes",
          "name": "",
          "type": "bytes"
        }
      ],
      "name": "onERC1155BatchReceived",
      "outputs": [
        {
          "internalType": "bytes4",
          "name": "",
          "type": "bytes4"
        }
      ],
      "stateMutability": "nonpayable",
      "type": "function"
    },
    {
      "inputs": [
        {
          "internalType": "address",
          "name": "",
          "type": "address"
        },
        {
          "internalType": "address",
          "name": "",
          "type": "address"
        },
        {
          "internalType": "uint256",
          "name": "",
          "type": "uint256"
        },
        {
          "internalType": "uint256",
          "name": "",
          "type": "uint256"
        },
        {
          "internalType": "bytes",
          "name": "",
          "type": "bytes"
        }
      ],
      "name": "onERC1155Received",
      "outputs": [
        {
          "internalType": "bytes4",
          "name": "",
          "type": "bytes4"
        }
      ],
      "stateMutability": "nonpayable",
      "type": "function"
    },
    {
      "inputs": [],
      "name": "paymentToken",
      "outputs": [
        {
          "internalType": "contract IERC20",
          "name": "",
          "type": "address"
        }
      ],
      "stateMutability": "view",
      "type": "function"
    },
    {
      "inputs": [],
      "name": "propertyToken",
      "outputs": [
        {
          "internalType": "contract PropertyToken",
          "name": "",
          "type": "address"
        }
      ],
      "stateMutability": "view",
      "type": "function"
    },
    {
      "inputs": [
        {
          "internalType": "uint256",
          "name": "",
          "type": "uint256"
        }
      ],
      "name": "propertyValue",
      "outputs": [
        {
          "internalType": "uint256",
          "name": "",
          "type": "uint256"
        }
      ],
      "stateMutability": "view",
      "type": "function"
    },
    {
      "inputs": [
        {
          "internalType": "uint256",
          "name": "_amount",
          "type": "uint256"
        },
        {
          "internalType": "uint256",
          "name": "_tokenId",
          "type": "uint256"
        }
      ],
      "name": "sellShares",
      "outputs": [],
      "stateMutability": "nonpayable",
      "type": "function"
    },
    {
      "inputs": [
        {
          "internalType": "uint256",
          "name": "",
          "type": "uint256"
        }
      ],
      "name": "sharePrice",
      "outputs": [
        {
          "internalType": "uint256",
          "name": "",
          "type": "uint256"
        }
      ],
      "stateMutability": "view",
      "type": "function"
    },
    {
      "inputs": [
        {
          "internalType": "bytes4",
          "name": "interfaceId",
          "type": "bytes4"
        }
      ],
      "name": "supportsInterface",
      "outputs": [
        {
          "internalType": "bool",
          "name": "",
          "type": "bool"
        }
      ],
      "stateMutability": "view",
      "type": "function"
    }
  ],
  "bytecode": "0x60c060405234801561001057600080fd5b5060405161109238038061109283398101604081905261002f91610087565b6001600160a01b0393841660805291831660a052600080549184166001600160a01b0319928316179055600180549290931691161790556100db565b80516001600160a01b038116811461008257600080fd5b919050565b6000806000806080858703121561009d57600080fd5b6100a68561006b565b93506100b46020860161006b565b92506100c26040860161006b565b91506100d06060860161006b565b905092959194509250565b60805160a051610f8461010e6000396000818161037f01526104dd01526000818161025501526103cc0152610f846000f3fe608060405234801561001057600080fd5b50600436106101215760003560e01c80639621e5a7116100ad578063e2a5c47011610071578063e2a5c47014610313578063e61dd2a614610333578063e948037a1461037a578063f18785a8146103a1578063f23a6e61146103a957600080fd5b80639621e5a714610250578063a1d1cbb514610277578063bc197c811461029a578063c2e017e5146102d2578063dcd9d12d146102e557600080fd5b80632279a970116100f45780632279a970146101a65780633013ce29146101b957806343ae2695146101e45780637bf69ca9146101f75780638c93b4491461023057600080fd5b80630161e7541461012657806301ffc9a71461013b57806308bccb7e14610163578063226335041461019c575b600080fd5b610139610134366004610ad4565b6103c8565b005b61014e610149366004610af6565b610578565b60405190151581526020015b60405180910390f35b61018e610171366004610b3f565b600660209081526000928352604080842090915290825290205481565b60405190815260200161015a565b61018e62278d0081565b6101396101b4366004610ad4565b6105af565b6001546101cc906001600160a01b031681565b6040516001600160a01b03909116815260200161015a565b6000546101cc906001600160a01b031681565b61018e610205366004610b3f565b60009182526002602090815260408084206001600160a01b0393909316845291905290206001015490565b61018e61023e366004610b6f565b60056020526000908152604090205481565b6101cc7f000000000000000000000000000000000000000000000000000000000000000081565b61014e610285366004610b6f565b60036020526000908152604090205460ff1681565b6102b96102a8366004610cfb565b63bc197c8160e01b95945050505050565b6040516001600160e01b0319909116815260200161015a565b6101396102e0366004610ad4565b610804565b61018e6102f3366004610b6f565b600090815260026020908152604080832033845290915290206001015490565b61018e610321366004610b6f565b60046020526000908152604090205481565b610365610341366004610b3f565b60026020908152600092835260408084209091529082529020805460019091015482565b6040805192835260208301919091520161015a565b6101cc7f000000000000000000000000000000000000000000000000000000000000000081565b61018e600181565b6102b96103b7366004610da9565b63f23a6e6160e01b95945050505050565b60007f00000000000000000000000000000000000000000000000000000000000000006001600160a01b031663045225596040518163ffffffff1660e01b8152600401600060405180830381865afa158015610428573d6000803e3d6000fd5b505050506040513d6000823e601f3d908101601f191682016040526104509190810190610e12565b905080516000036104745760405163ae02b10760e01b815260040160405180910390fd5b6000838152600360209081526040808320805460ff19166001908117909155600590925280832085905551637921219560e11b815233600482015230602482015260448101869052606481019190915260a0608482015260a48101919091526001600160a01b037f0000000000000000000000000000000000000000000000000000000000000000169063f242432a9060c401600060405180830381600087803b15801561052157600080fd5b505af1158015610535573d6000803e3d6000fd5b50505050827f2c14e62d0668a4cbabe0d859d8307bc9e3b3cf7da9addda5a3f9ddf738e4caeb8360405161056b91815260200190565b60405180910390a2505050565b60006001600160e01b03198216630271189760e51b14806105a957506301ffc9a760e01b6001600160e01b03198316145b92915050565b60008181526003602052604090205460ff166105de576040516303ffefb760e21b815260040160405180910390fd5b600081815260026020908152604080832033845290915290206001015482111561061b576040516307ac10f160e21b815260040160405180910390fd5b60008181526006602090815260408083203384529091529020546106439062278d0090610eef565b42101561066357604051638cfa790760e01b815260040160405180910390fd5b60008181526005602052604081205461067c9084610f02565b60008381526002602090815260408083203384529091528120600101805492935085929091906106ad908490610f19565b90915550506000828152600260209081526040808320338452909152812080548392906106db908490610f19565b90915550506000546106f8906001600160a01b03163330866109ff565b600054604051630852cd8d60e31b8152600481018590526001600160a01b03909116906342966c6890602401600060405180830381600087803b15801561073e57600080fd5b505af1158015610752573d6000803e3d6000fd5b505060015460405163a9059cbb60e01b8152336004820152602481018590526001600160a01b03909116925063a9059cbb91506044016020604051808303816000875af11580156107a7573d6000803e3d6000fd5b505050506040513d601f19601f820116820180604052508101906107cb9190610f2c565b50604080513381526020810185905283917f938a3e7589d60f00d1e57b9257ead6b218cde7829429cbbdc4afb037ddce2223910161056b565b60008181526003602052604090205460ff16610833576040516303ffefb760e21b815260040160405180910390fd5b6000818152600660209081526040808320338452825280832042905583835260059091528120546108649084610f02565b6001546040516323b872dd60e01b8152336004820152306024820152604481018390529192506001600160a01b0316906323b872dd906064016020604051808303816000875af11580156108bc573d6000803e3d6000fd5b505050506040513d601f19601f820116820180604052508101906108e09190610f2c565b50600082815260046020526040812080548392906108ff908490610eef565b909155505060008281526002602090815260408083203384529091528120805483929061092d908490610eef565b909155505060008281526002602090815260408083203384529091528120600101805485929061095e908490610eef565b90915550506000546040516340c10f1960e01b8152336004820152602481018590526001600160a01b03909116906340c10f1990604401600060405180830381600087803b1580156109af57600080fd5b505af11580156109c3573d6000803e3d6000fd5b505060408051338152602081018790528593507fd4a7a37d339805413b4085e0f8e0932dfb0a4f84f08f98a6e53673b5ee8eee1592500161056b565b604080516001600160a01b0385811660248301528416604482015260648082018490528251808303909101815260849091019091526020810180516001600160e01b03166323b872dd60e01b179052610a59908590610a5f565b50505050565b600080602060008451602086016000885af180610a82576040513d6000823e3d81fd5b50506000513d91508115610a9a578060011415610aa7565b6001600160a01b0384163b155b15610a5957604051635274afe760e01b81526001600160a01b038516600482015260240160405180910390fd5b60008060408385031215610ae757600080fd5b50508035926020909101359150565b600060208284031215610b0857600080fd5b81356001600160e01b031981168114610b2057600080fd5b9392505050565b6001600160a01b0381168114610b3c57600080fd5b50565b60008060408385031215610b5257600080fd5b823591506020830135610b6481610b27565b809150509250929050565b600060208284031215610b8157600080fd5b5035919050565b634e487b7160e01b600052604160045260246000fd5b6040516060810167ffffffffffffffff81118282101715610bc157610bc1610b88565b60405290565b604051601f8201601f1916810167ffffffffffffffff81118282101715610bf057610bf0610b88565b604052919050565b600067ffffffffffffffff821115610c1257610c12610b88565b5060051b60200190565b600082601f830112610c2d57600080fd5b81356020610c42610c3d83610bf8565b610bc7565b8083825260208201915060208460051b870101935086841115610c6457600080fd5b602086015b84811015610c805780358352918301918301610c69565b509695505050505050565b600082601f830112610c9c57600080fd5b813567ffffffffffffffff811115610cb657610cb6610b88565b610cc9601f8201601f1916602001610bc7565b818152846020838601011115610cde57600080fd5b816020850160208301376000918101602001919091529392505050565b600080600080600060a08688031215610d1357600080fd5b8535610d1e81610b27565b94506020860135610d2e81610b27565b9350604086013567ffffffffffffffff80821115610d4b57600080fd5b610d5789838a01610c1c565b94506060880135915080821115610d6d57600080fd5b610d7989838a01610c1c565b93506080880135915080821115610d8f57600080fd5b50610d9c88828901610c8b565b9150509295509295909350565b600080600080600060a08688031215610dc157600080fd5b8535610dcc81610b27565b94506020860135610ddc81610b27565b93506040860135925060608601359150608086013567ffffffffffffffff811115610e0657600080fd5b610d9c88828901610c8b565b60006020808385031215610e2557600080fd5b825167ffffffffffffffff811115610e3c57600080fd5b8301601f81018513610e4d57600080fd5b8051610e5b610c3d82610bf8565b81815260609182028301840191848201919088841115610e7a57600080fd5b938501935b83851015610ecd5780858a031215610e975760008081fd5b610e9f610b9e565b8551610eaa81610b27565b815285870151878201526040808701519082015283529384019391850191610e7f565b50979650505050505050565b634e487b7160e01b600052601160045260246000fd5b808201808211156105a9576105a9610ed9565b80820281158282048414176105a9576105a9610ed9565b818103818111156105a9576105a9610ed9565b600060208284031215610f3e57600080fd5b81518015158114610b2057600080fdfea2646970667358221220291463618b2cfd8bf49f403965bf6c3d3f9c7fe215424e7d5ca17bea9f4568fa64736f6c63430008180033",
  "linkReferences": {},
  "deployedLinkReferences": {}
}